:020000040000fa
:080000000002040000000000f2
:020000040000fa
:04000800b40300003d
:020000040000fa
:04000c00f6030000f7
:020000040000fa
:040010005604000092
:020000040000fa
:04001400d403000011
:020000040000fa
:0400180016040000ca
:020000040000fa
:04001c0036040000a6
:020000040000fa
:040020007604000062
:020000040000fa
:04002400c80400000c
:020000040000fa
:04002800c804000008
:020000040000fa
:04002c00c804000004
:020000040000fa
:04003000c804000000
:020000040000fa
:040034007e03000047
:020000040000fa
:04003800c8040000f8
:020000040000fa
:04003c00c8040000f4
:020000040000fa
:04004000c8040000f0
:020000040000fa
:04004400c8040000ec
:020000040000fa
:04004800c8040000e8
:020000040000fa
:04004c00c8040000e4
:020000040000fa
:04005000c8040000e0
:020000040000fa
:04005400c8040000dc
:020000040000fa
:04005800c8040000d8
:020000040000fa
:04005c00c8040000d4
:020000040000fa
:04006000c8040000d0
:020000040000fa
:04006400c8040000cc
:020000040000fa
:04006800c8040000c8
:020000040000fa
:04006c00c8040000c4
:020000040000fa
:04007000c8040000c0
:020000040000fa
:04007400c8040000bc
:020000040000fa
:04007800c8040000b8
:020000040000fa
:04007c00c8040000b4
:020000040000fa
:04008000c8040000b0
:020000040000fa
:04008400c8040000ac
:020000040000fa
:04008800c8040000a8
:020000040000fa
:04008c00c8040000a4
:020000040000fa
:04009000c8040000a0
:020000040000fa
:04009400c80400009c
:020000040000fa
:04009800c804000098
:020000040000fa
:04009c00c804000094
:020000040000fa
:0400a000c804000090
:020000040000fa
:0400a400c80400008c
:020000040000fa
:0400a800c804000088
:020000040000fa
:0400ac00c804000084
:020000040000fa
:0400b000c804000080
:020000040000fa
:0400b400c80400007c
:020000040000fa
:0400b800c804000078
:020000040000fa
:0400bc00c804000074
:020000040000fa
:0400c000c804000070
:020000040000fa
:0400c400c80400006c
:020000040000fa
:0400c800c804000068
:020000040000fa
:0400cc00c804000064
:020000040000fa
:0400d000c804000060
:020000040000fa
:0400d400c80400005c
:020000040000fa
:0400d800c804000058
:020000040000fa
:0400dc00c804000054
:020000040000fa
:0400e000c804000050
:020000040000fa
:0400e400c80400004c
:020000040000fa
:0400e800c804000048
:020000040000fa
:0400ec00c804000044
:020000040000fa
:0400f000c804000040
:020000040000fa
:0400f400c80400003c
:020000040000fa
:0400f800c804000038
:020000040000fa
:0400fc00c804000034
:020000040000fa
:04010000c80400002f
:020000040000fa
:04010400c80400002b
:020000040000fa
:04010800c804000027
:020000040000fa
:04010c00a204000049
:020000040000fa
:04011000c80400001f
:020000040000fa
:04011400c80400001b
:020000040000fa
:04011800c804000017
:020000040000fa
:04011c00c804000013
:020000040000fa
:04012000c80400000f
:020000040000fa
:04012400c80400000b
:020000040000fa
:04012800c804000007
:020000040000fa
:04012c00c804000003
:020000040000fa
:04013000c8040000ff
:020000040000fa
:04013400c8040000fb
:020000040000fa
:04013800c8040000f7
:020000040000fa
:04013c00c8040000f3
:020000040000fa
:04014000c8040000ef
:020000040000fa
:04014400c8040000eb
:020000040000fa
:04014800c8040000e7
:020000040000fa
:04014c00c8040000e3
:020000040000fa
:04015000c8040000df
:020000040000fa
:04015400c8040000db
:020000040000fa
:04015800c8040000d7
:020000040000fa
:04015c00c8040000d3
:020000040000fa
:04016000c8040000cf
:020000040000fa
:04016400c8040000cb
:020000040000fa
:04016800c8040000c7
:020000040000fa
:04016c00c8040000c3
:020000040000fa
:04017000c8040000bf
:020000040000fa
:04017400c8040000bb
:020000040000fa
:04017800c8040000b7
:020000040000fa
:04017c00c8040000b3
:020000040000fa
:04018000c8040000af
:020000040000fa
:04018400c8040000ab
:020000040000fa
:04018800c8040000a7
:020000040000fa
:04018c00c8040000a3
:020000040000fa
:04019000c80400009f
:020000040000fa
:04019400c80400009b
:020000040000fa
:04019800c804000097
:020000040000fa
:04019c00c804000093
:020000040000fa
:0401a000c80400008f
:020000040000fa
:0401a400c80400008b
:020000040000fa
:0401a800c804000087
:020000040000fa
:0401ac00c804000083
:020000040000fa
:0401b000c80400007f
:020000040000fa
:0401b400c80400007b
:020000040000fa
:0401b800c804000077
:020000040000fa
:0401bc00c804000073
:020000040000fa
:0401c000c80400006f
:020000040000fa
:0401c400c80400006b
:020000040000fa
:0401c800c804000067
:020000040000fa
:0401cc00c804000063
:020000040000fa
:0401d000c80400005f
:020000040000fa
:0401d400c80400005b
:020000040000fa
:0401d800c804000057
:020000040000fa
:0401dc00c804000053
:020000040000fa
:0401e000c80400004f
:020000040000fa
:0401e400c80400004b
:020000040000fa
:0401e800c804000047
:020000040000fa
:0401ec00c804000043
:020000040000fa
:0401f000c80400003f
:020000040000fa
:0401f400c80400003b
:020000040000fa
:0401f800c804000037
:020000040000fa
:0401fc00c804000033
:020000040000fa
:04020000c80400002e
:020000040000fa
:04020400c80400002a
:020000040000fa
:04020800c804000026
:020000040000fa
:04020c00c804000022
:020000040000fa
:04021000c80400001e
:020000040000fa
:04021400c80400001a
:020000040000fa
:04021800c804000016
:020000040000fa
:04021c00c804000012
:020000040000fa
:04022000c80400000e
:020000040000fa
:04022400c80400000a
:020000040000fa
:04022800c804000006
:020000040000fa
:04022c00c804000002
:020000040000fa
:04023000c8040000fe
:020000040000fa
:04023400c8040000fa
:020000040000fa
:04023800c8040000f6
:020000040000fa
:04023c00c8040000f2
:020000040000fa
:04024000c8040000ee
:020000040000fa
:04024400c8040000ea
:020000040000fa
:04024800c8040000e6
:020000040000fa
:04024c00c8040000e2
:020000040000fa
:04025000c8040000de
:020000040000fa
:04025400c8040000da
:020000040000fa
:04025800c8040000d6
:020000040000fa
:04025c00c8040000d2
:020000040000fa
:04026000c8040000ce
:020000040000fa
:04026400c8040000ca
:020000040000fa
:04026800c8040000c6
:020000040000fa
:04026c00c8040000c2
:020000040000fa
:04027000c8040000be
:020000040000fa
:04027400c8040000ba
:020000040000fa
:04027800c8040000b6
:020000040000fa
:04027c00c8040000b2
:020000040000fa
:04028000c8040000ae
:020000040000fa
:10040000af5922000eff27000e01880000000000f7
:10041000000020000000e000020032000001200087
:1004200020028800140007005b0107000000e000c4
:1004300003003a00606e2200010020000200370035
:100440000000200001002000810f70000100320038
:100450000f000700000020000000e0000200320052
:100460000000020000000000042102000000000063
:100470000040da000000fe00400320000000e00021
:1004800002003200002020009001880000000600d9
:10049000a1028800800478000000eb001f003700f4
:1004a000e284440054a0b4009905ba00e2844400f8
:1004b00054a0b4009906ba00e284440054a0b400e9
:1004c0000006eb00476fde00fd07b200ae018800ba
:1004d000636ce10003003a000ad801000000eb0061
:1004e0000e003700606ce10008003a00004deb00a0
:1004f0000a05e800020039003420ec000af0a000f0
:100500008b05e900f9ff3e00040037006168e10057
:10051000010032000086eb000b00070019c7ba008b
:100520000e04e0001905ba0003003a000a00e000da
:10053000dbff3a0000000600fe07b200ae028800b2
:100540008a047800f5ff37000cd0a300e20f4d00bd
:100550001c003b0089027800354dba000a05e8000e
:10056000020039003420ec000af0a0008b05e900fd
:100570000f003200254dba000a05e80002003900dc
:100580003420ec000af0a0008b05e90008003200de
:100590000c00e0000600320015cdba000a05e800a4
:1005a000020039003420ec000af0a0008b05e900bd
:1005b0008984e80054a0b4000b00e000e2ff3a0098
:1005c000000006009902ba00055d78008b05e9007d
:1005d000f7ff3200c82ade00055d78008b05e900d0
:1005e000f3ff32000c00e000f1ff320019ddba0029
:1005f000eeff370082280400000000007a28040083
:1006000000000000722804000000000066280400ba
:10061000000000003428040000000000c221040093
:10062000000000003c2604000000000042260400f8
:100630000000000046260400000000004a260400d6
:10064000000000003c280400000000003e280400d8
:1006500000000000402804000000000042280400c0
:1006600000000000442804000000000046280400a8
:1006700000000000b013040000000000be130400de
:10068000000000004e18040000000000ae17040037
:10069000000000006615040000000000d0160400f1
:1006a00000000000e80a040000000000820a0400c4
:1006b000000000007a0d0400000000002e0e04006f
:1006c00000000000ae13040000000000b81d04008c
:1006d00000000000c21c040000000000341d0400e3
:1006e00000000000821e040000000000a4180400a6
:1006f000000000009a180400000000003600f80016
:10070000809fbe00829fbe00849fbe00869fbe0069
:100710000000fa00c08080000000e000020032000b
:10072000c080800000000100905922001040780035
:100730008040e8009059220001487800805922004a
:1007400011c0b300014878000068a9000080fa00d9
:100750004f03be004f02be004f01be004f00be005f
:100760003600f900004006003600f800809fbe0009
:10077000829fbe00849fbe00869fbe000000fa00dc
:10078000c028a9000000eb00621207000080fa00f8
:100790004f03be004f02be004f01be004f00be001f
:1007a0003600f900004006003600f800809fbe00c9
:1007b000829fbe00849fbe00869fbe000000fa009c
:1007c0005b120700c048a90010002000511207006a
:1007d0000080fa004f03be004f02be004f01be0072
:1007e0004f00be003600f900004006003600f80059
:1007f000809fbe00829fbe00849fbe00869fbe0079
:100800000000fa00c068a900200020004112070083
:100810000080fa004f03be004f02be004f01be0031
:100820004f00be003600f900004006003600f80018
:10083000809fbe00829fbe00849fbe00869fbe0038
:100840000000fa00c088a900300020003112070023
:100850000080fa004f03be004f02be004f01be00f1
:100860004f00be003600f900004006003600f800d8
:10087000809fbe00829fbe00849fbe00869fbe00f8
:100880000000fa00c0a8a9004000200021120700c3
:100890000080fa004f03be004f02be004f01be00b1
:1008a0004f00be003600f900004006003600f80098
:1008b000809fbe00829fbe00849fbe00869fbe00b8
:1008c0000000fa00c608a9007000200011120700fd
:1008d0000080fa004f03be004f02be004f01be0071
:1008e0004f00be003600f900004006003600f80058
:1008f000809fbe00829fbe00849fbe00869fbe0078
:100900000000fa0021468000000220000080600004
:100910000000e00003003200c4a8a90090002000fd
:10092000fc11070020468000700060000000e0001d
:1009300003003200c488a900a0002000f5110700c0
:10094000ffff37003600f800809fbe00829fbe0088
:10095000849fbe00869fbe000000fa00e0808000f9
:100960000000e00002003200e08080000000010092
:100970000728a9000080fa004f03be004f02be0006
:100980004f01be004f00be003600f90000400600d7
:100990000040da000000fe00000005008f1fd100bb
:1009a0001c0007008f87e9000000e000000006003f
:1009b000809feb00170007008f87e9000000e00030
:1009c00000000600140020004d003700f4ff2f0047
:1009d0004b0037006022b800060220000000d00063
:1009e0008180d2000482d2008582d2000000a00063
:1009f0000202520083825a000300310002024200c8
:100a000083824a000000a1000603e900f3ff3a00d8
:100a100000000600889fbe008a9fbe008c9fbe001b
:100a20000404be000605be00809fbe00829fbe007b
:100a300021000700040678000800be000a01be007d
:100a40001d000700840678004f03be004f02be0061
:100a50008d4f76007fb0970013003300f0ff2f001a
:100a60008b8f6b0006003b000d0666000c00a70094
:100a70000a00370007f0a600100020000a00370027
:100a8000880f5200898f5a008a0f5b008b8f5b00a2
:100a9000030039001000200001003e00000020008b
:100aa00007f0a7000000ea004f06be004f05be0099
:100ab0004f04be000000060005ff2700058261000c
:100ac000070032000428e100010032002400050084
:100ad0000600070001003a00440005000408050074
:100ae00002000700f9ff3a00140005006f82610060
:100af000810270008502710085027200000006000c
:100b0000889fbe008a9fbe00841f780017000700e0
:100b10004f00780011003300f0ff2f00838f6c002e
:100b200006003b00040565000a00a7000800370026
:100b300009f0a6001000200008003700820f5400c2
:100b4000838f5c00030039001000200001003e008c
:100b50000000200009f0a7000000ea004f05be00d9
:100b60004f04be000000e000000006000004be00cc
:100b7000060007000003be000405be000200be0020
:100b800002000700844f750000000600c70ade005f
:100b9000f107b200f50fb20008003200e1cf4200c9
:100ba000020032000170a00024000500810f7000d7
:100bb000010032000408050044000500810f7000a8
:100bc00002003a00140005008502e9000000400020
:100bd00081c04800fcff3b000170a000240005001c
:020000040000fa
:100be000ffff0000e80a0000820a00007a0d000002
:100bf0002e0e0000ae1300000000000000000000f8
:100c000000000000000000000000000000000000e4
:100c100001000000e82400000000000000000000c7
:100c20004a7500006c2000002032000020320000d5
:100c30003032000035310000323a0000323300001b
:080c40003a330000300000000f
:020000040000fa
:100c48001800fa00889fbe008a9fbe008c1f78009b
:100c580000067800f4af9f0085b79f0096b79f0005
:100c6800a7b79f002c709000ef4060000068a300b9
:100c78000b003200e4cf50003b003200e8cf5000b8
:100c88004e0032000046eb000c4078004f0678001a
:100c98004f05be004f04be000080fa0000000600a9
:100ca8000058a30018003200e2cf5000670032005d
:100cb8008c003e00e1cf5000f2ff3a008c699000b2
:100cc8000c6090006fda97003c299000e10f51000a
:100cd800250132000046eb0080cf5100eaff3400c6
:100ce80001467800844f5000e6ff35000c4078003c
:100cf8004f0678004f05be004f04be000080fa0082
:100d080000000600e6ff3700e2cf50006200320024
:100d1800a6003e00e1cf5000daff3a008c6990004f
:100d28000c6090006fda97003c299000e10f5100a9
:100d3800000132000046eb0080cf5100d2ff3600a0
:100d480001467800844f5000ceff39000c407800ef
:100d58004f0678004f05be004f04be000080fa0021
:100d680000000600ceff37004c109000dc10900009
:100d78000c1490009c1490007fad97008fb59700dd
:100d88003c2e9000e10f5600870132000801be009a
:100d98000cff07000000e000baff34001cc0b300dd
:100da8000801be000a00be0004ff07000000e000c2
:100db800b5ff34000046eb00b3ff37004c1090003d
:100dc800dc1090006c119000fc1190000c14900045
:100dd8009c1490002c159000bc1590007faa9700d9
:100de8008fb297001fb39700afb39700b4b79f00b7
:100df800c5b79f00d6b79f00e7b79f003c2e90006d
:100e0800e10f5600530132000802be000a03be007b
:100e1800e5fe07000000e0009aff34001cc0b300a4
:100e28000802be000a03be003fb09700cfb097008b
:100e38005fb19700efb19700d6fe07000000e00011
:100e480091ff34000046eb008fff37004c119000f3
:100e58000c109000ffa99700bc289000e18f50006b
:100e6800db0032000046eb00800f510086ff3400a3
:100e78001cc0b300830f500082ff35000c4078007f
:100e88004f0678004f05be004f04be000080fa00f0
:100e98000000060082ff37004c1190000c109000f3
:100ea800ffa99700bc289000e18f5000bb003200da
:100eb8000046eb00800f510073ff36001cc0b300e2
:100ec800830f50006fff39000c4078004f06780000
:100ed8004f05be004f04be000080fa000000060067
:100ee8006fff3700e4cf50007a003200e8cf50009f
:100ef80064ff3a004c149000dc1490006c159000cc
:100f0800fc159000f8b79f0089bf9f009abf9f000b
:100f1800abbf9f000c1090009c1090002c1190000b
:100f2800bc119000b4b79f00c5b79f00d6b79f000b
:100f3800e7b79f00bc2a9000e18f5200ea00320018
:100f48000046eb007fb497008fbc97001fbd970049
:100f5800afbd97000040e10001c8e10002d0e10008
:100f680003d8e10048ff34001cc0b3003fb297002b
:100f7800cfb297005fb39700efb397000400e1008a
:100f88000588e1000690e1000798e1003dff350083
:100f98000c4078004f0678004f05be004f04be0095
:100fa8000080fa00000006003dff3700e4cf500043
:100fb80030003200e8cf500032ff3a004c14900065
:100fc800dc1490006c159000fc159000f8b79f0099
:100fd80089bf9f009abf9f00abbf9f000c10900075
:100fe8009c1090002c119000bc119000b4b79f0089
:100ff800c5b79f00d6b79f00e7b79f00bc2a9000ef
:10100800e18f52009d0032000046eb007fb497004c
:101018008fbc97001fbd9700afbd97000040e1004f
:1010280001c8e10002d0e10003d8e10016ff360054
:101038001cc0b3003fb29700cfb297005fb39700d0
:10104800efb397000400e1000588e1000690e10095
:101058000798e1000bff39000c4078004f06780034
:101068004f05be004f04be000080fa0000000600d5
:101078000bff37004c129000dc1290000c1090000f
:101088009c1090007fab97008fb397003c2990008d
:10109800e10f51006a0032000046eb00800f520059
:1010a800818f5a00f8fe36001cc0b300860f50002e
:1010b800878f5800f3fe39000c4078004f067800ff
:1010c8004f05be004f04be000080fa000000060075
:1010d800f3fe37004c129000dc1290000c109000c8
:1010e8009c1090007fab97008fb397003c2990002d
:1010f800e10f5100430032000046eb00800f520020
:10110800818f5a00e0fe34001cc0b300860f5000e7
:10111800878f5800dbfe35000c4078004f067800ba
:101128004f05be004f04be000080fa000000060014
:10113800dbfe37000046eb0080cf5100d2fe3100c5
:1011480002467800844f5000cefe3e000c407800e6
:101158004f0678004f05be004f04be000080fa001d
:1011680000000600cefe37000046eb0080cf51009d
:10117800c5fe3d0002467800844f5000c1fe3c0089
:101188000c4078004f0678004f05be004f04be00a3
:101198000080fa0000000600c1fe37000046eb00a0
:1011a800800f5100b8fe310001467800830f5000cf
:1011b800b4fe3e000c4078004f0678004f05be0094
:1011c8004f04be000080fa0000000600b4fe37009d
:1011d8000046eb00800f5100abfe3d000146780051
:1011e800830f5000a7fe3c000c4078004f067800a3
:1011f8004f05be004f04be000080fa000000060044
:10120800a7fe37000046eb00800f5200818f5a007e
:101218009dfe3d0002467800860f5000878f5800db
:1012280098fe3c000c4078004f0678004f05be0041
:101238004f04be000080fa000000060098fe370048
:101248000046eb00800f5200818f5a008efe31005d
:1012580002467800860f5000878f580089fe3e00ae
:101268000c4078004f0678004f05be004f04be00c2
:101278000080fa000000060089fe37000046eb00f7
:101288007fb497008fbc97001fbd9700afbd970034
:101298000040e10001c8e10002d0e10003d8e1000c
:1012a80079fe3100054678003fb29700cfb297002b
:1012b8005fb39700efb397000400e1000588e100f1
:1012c8000690e1000798e1006efe3e000c407800b1
:1012d8004f0678004f05be004f04be000080fa009c
:1012e800000006006efe37000046eb007fb4970052
:1012f8008fbc97001fbd9700afbd97000040e1006d
:1013080001c8e10002d0e10003d8e1005efe3d0023
:10131800054678003fb29700cfb297005fb39700b9
:10132800efb397000400e1000588e1000690e100b2
:101338000798e10053fe3c000c4078004f06780007
:101348004f05be004f04be000080fa0000000600f2
:1013580053fe37000802be000a03be008dfd0700d9
:101368000000e00047fe3d000802be000a03be0080
:101378003fb09700cfb097005fb19700efb19700eb
:1013880089fd07000000e0003efe35000c407800b3
:101398004f0678004f05be004f04be000080fa00db
:1013a800000006003efe37000801be0083fd07006e
:1013b8000000e00033fe3d000801be000a00be0048
:1013c80080fd07000000e0002efe35000c4078008c
:1013d8004f0678004f05be004f04be000080fa009b
:1013e800000006002efe37000001eb000000e000c0
:1013f80002003a0002007800000006009001780020
:10140800818f51000c0032000300e000f9ff320028
:10141800640140000200780092017800818f510039
:1014280005003200640141000300e000f9ff3a00c2
:1014380000000500f1ff37000001eb000300e000a9
:10144800ecff32001000900000000600ebff3700b0
:10145800efc06000e2cf50001a00320007003600eb
:10146800e4cf50001e003200e8cf50000d003200db
:101478000400be000601be0000000600e1cf5000d7
:10148800fbff3a00104278000482fb008002eb0068
:101498006033b8000400be000601be00000006006c
:1014a800f6ff3700100278009002900020039000a9
:1014b800b00390000400be000601be000000060054
:1014c800eeff3700100278008002eb006033b800ae
:1014d8000400be000601be0000000600e7ff37005a
:1014e80010027800900290006033b8000400be003b
:1014f8000601be0000000600e0ff37000088eb0090
:101508000001780071024000f00240008001eb0009
:101518000029eb00006aeb00850f5100fbff3a0041
:1015280022022100520898006022b8006033b800f7
:10153800041098001510980026109800371098008d
:10154800441098005510980066109800771098007d
:101558000318980023709800231898006022b80098
:1015680034189800451898000041eb00227898003c
:10157800337898006318980073189800032098002f
:1015880023c0980024209800352098004420980013
:101598005520980043c898007420980005289800a2
:1015a800112898002328980012002000322898005b
:1015b800610898007308980041289800018180000c
:1015c800c0089800000006000800fa00881f78008c
:1015d8000004780028189000e60f500014003e0020
:1015e800e50f500030003900a870900008189000ee
:1015f80097ff07000203be000002be00b0bf9f00b5
:10160800c1bf9f00d2bf9f00e3bf9f0008007800c2
:101618008bfd07000004e000fa00320040002000c3
:10162800201c98004f0478000080fa000000060093
:10163800e70f500080003200e80f5000f9ff3a0031
:1016480078189000e81890000001e800721c9800d3
:10165800810f5000f3ff39000000eb00701c980068
:10166800287890000080fb008000eb004821900063
:10167800d821900000004100818049004024980052
:1016880051249800e00f5000e08f5800e5ff350026
:1016980020002000201c98004f0478000080fa00e9
:1016a80000000600e2ff3700e20f5000a000320001
:1016b800e40f5000df003200e10f5000d9ff3a007c
:1016c80078189000e81890000001e800721c980053
:1016d800810f50002e0039000000eb00701c9800ac
:1016e80038199000c8199000287a90000482fb00ed
:1016f8008002eb00040241008582490048289000de
:101708008000eb00800f5200818f5a0003003600e2
:101718006011b800321c9800431c98008043eb000d
:101728008782fb000040eb000503e800f2824200dc
:10173800060343000603440085024400d8089000cd
:10174800828040000082fb00160242009448780024
:1017580061014100e0814900321c9800431c980057
:101768000040e800954f5000f4ff39008743e80037
:101778003878900080cf5300e9ff39007820900036
:1017880088289000820f5000838f5800bd003600d3
:10179800a8709000081890002dff07000203be00f3
:1017a8000002be00b0bf9f00c1bf9f00d2bf9f0014
:1017b800e3bf9f000800780021fd07000004e00057
:1017c8009000320048c890000004e0008d0032000c
:1017d80028209000b8209000e00f5000e08f5800bb
:1017e800ab00350038189000c8189000e00f500082
:1017f800e08f5800b1003200781990000200e00034
:10180800b5003a00287990000281fb008001eb00c6
:10181800020050008380580040249800512498000a
:1018280070002000201c98004f0478000080fa0007
:10183800000006007eff370078189000e818900036
:101848000001e800721c9800810f500075ff3900f4
:101858000000eb00701c980038199000c81990001f
:10186800287a90000482fb008002eb000402410009
:1018780085824900482890008000eb00800f5200c4
:10188800818f5a00030036006011b800321c98009e
:10189800431c98008043eb008782fb000040eb006c
:1018a8000503e800f28242000603430006034400f1
:1018b80085024400d8089000828040000082fb0026
:1018c800160242009448780061014100e081490015
:1018d800321c9800431c98000040e800954f5000c7
:1018e800f4ff39008743e8003878900080cf530030
:1018f800e9ff390048209000d820900002015000ec
:101908008381580028209000b8209000800f510053
:10191800818f590051003e000000eb00201c980008
:101928004f0478000080fa000000060040ff3700ee
:1019380078189000e81890000001e800721c9800e0
:10194800810f5000280039000000eb00701c98003f
:1019580038199000c81990008043eb008782fb007b
:101968000040eb000503e800f28242000603430052
:101978000603440085024400d80890008280400095
:101988000082fb0016024200944878006101410081
:10199800e0814900321c9800431c98000040e80090
:1019a800954f5000f4ff39008743e80038789000dd
:1019b80080cf5300e9ff3900287890000080fb00b1
:1019c8008000eb0002014000838148004828900015
:1019d8008000eb00800f5100818f59000200360013
:1019e8000000eb00201c9800082090000000e80090
:1019f800002498004f0478000080fa0000000600d8
:101a08000bff37003fb89700cfb897005fb9970032
:101a1800efb9970040149800511498006214980088
:101a2800731498004f0478000080fa000000060044
:101a3800fffe3700082090000000e800002498000e
:101a4800781890000000e800701c98004f04780097
:101a58000080fa0000000600f5fe3700182a900002
:101a6800a82a90000201420083814a00820f500098
:101a7800838f5800ebfe39000000eb00201c980013
:101a8800a7ff370010c0b30040cc980040ff3700d4
:101a980040249800512498006033b800361c980000
:101aa800471c980080002000201c98004f047800f4
:101ab8000080fa0000000600ddfe3700287890005c
:101ac8000080fb008000eb0018299000a8299000f6
:101ad800000051008180590040249800512498004a
:101ae80070002000201c98004fff370040719000c4
:101af80082487800307a90009440980040799000ad
:101b0800a2409800507a9000b4409800607190000c
:101b1800c240980030199000c0199000481add00a2
:101b28004811de0002017200c819de00d240980098
:101b380000799000e2409800107a9000f4409800f4
:101b4800205990008248980050099000cf91de00fb
:101b5800481add004811de0002017200c819de00d3
:101b68009248980050099000cf91de00a348980051
:101b780050099000cf91de004819de00b248980065
:101b880040c19000c248980020219000b0219000e8
:101b9800481add004811de0002017200d2489800a0
:101ba80060c19000e248980070c29000f448980024
:101bb80000c990008250980040219000d0219000e8
:101bc800481add004811de000201720092509800a8
:101bd80020c99000a250980030ca9000b4509800d4
:101be80020d19000c250980010299000a0299000a0
:101bf800481add004811de0002017200c819de0033
:101c0800d250980040d19000e250980050d29000f5
:101c1800f45098004059900082589800600990004c
:101c2800f0099000481add004811de000201720038
:101c3800c819de009258980060599000a258980080
:101c480070589000b058980020c8b300c058980049
:101c5800d00105004f02b000889fbe008a9fbe00d9
:101c68008c9fbe008e1f78000004be0082d79f00a4
:101c78001ec0b300e34f5100bd00360009057800cf
:101c88005a407800e84f5000b9003e000004e000d8
:101c9800b70032000000eb00201c98008040eb00e9
:101ca800307c9800002498006011b800321c98001d
:101cb800431c9800b9419000c819dd0029409000e4
:101cc8000080fb0000804100601c9800701c980098
:101cd8006022b8006033b800441498005514980086
:101ce8006614980077149800217c980020c0b300ef
:101cf80020c4980041cc98006022b8004424980081
:101d0800552498001a04e000180232004bc0b300b2
:101d1800814678000b46e8000b80fb0000804400f9
:101d280010477800e14f5700f50032009700310066
:101d38000d87fb000c86fb000e00e8000000400049
:101d4800000044000c8644008c00e8001181fb0070
:101d58008001eb00481add00c812de00850272001f
:101d68004812dd001c81fb008001eb0002084200e4
:101d78004c4090000e0744002057980028799000a6
:101d880002414000227c9800a8c0900000c040009a
:101d980020c49800c82990000281fb0011000900a6
:101da8008281d80001805100102c98008000eb003f
:101db800212c9800e6c545008d46e8009acf16000c
:101dc800d4ff3e008b80fb008b45e8000b80fb00b6
:101dd8008b46e80081804400914578002b74980078
:101de8000080440010467800e14f5600f3013200ad
:101df8001d0131000d80fb00008044008000e800d8
:101e08001182fb008002eb00482bdd00c823de00b6
:101e1800870373004823dd008080e8001182fb00ff
:101e28008002eb00c022dd0004002000060342000f
:101e380087834a001082fb008002eb000600420004
:101e480087804a00001c980064c74600efc66500fa
:101e5800e2cf5600000232001a013e00e1cf5600e0
:101e68004e003a008e81fb008381440013427800c3
:101e78000482fb008002eb006033b8000414980071
:101e88001514980026149800371498000b04e000e5
:101e98000a013500287090000054a00020749800b2
:101ea800e44547008b80fb00818044000100e80086
:101eb8001082fb008002eb00482bdd00c823de0007
:101ec800870373004823dd000180e8001082fb00cf
:101ed8008002eb00c022dd0004002000060342005f
:101ee80087834a001182fb008002eb000603420050
:101ef80087834a00e38040001180fb008000eb00ec
:101f0800c802dd00040020000600420087804a0065
:101f18002024980031249800eb09070070249800c9
:101f2800012c980064c045000080fb00008044003c
:101f38001080fb00302c9800e5c545008fd0970035
:101f48008bcf5000bb0036000b80fb0000804400a4
:101f580012c0b300904f1100b60032001a45780045
:101f68003a7c98001980fb00201c98000047eb0081
:101f78000e4078004f0778004f06be004f05be00a0
:101f88004f04be004f02b10000000600e24f5700a8
:101f980033003200e34f5700090032001ec0b3007f
:101fa8000e4078004f0778004f06be004f05be0070
:101fb8004f04be004f02b10000000600f3ff3700d7
:101fc8000c86fb0000818000100078000c8644001d
:101fd800e30046001181fb004811dd008c80e80019
:101fe8009180fb0081004100fffc07000000e00039
:101ff800eaff32000d87fb008e00e8008180400078
:1020080081004400900878004c4090000e0744007e
:10201800205798002879900002414000227c9800bf
:10202800a8c0900000c0400020c49800c8299000b3
:102038000281fb00110009008281d8000180510053
:10204800102c98008000eb00212c9800e6c5450074
:102058008d46e8009acf16002eff3e0059ff370044
:102068000c86fb0000818000100078000c8644007c
:10207800e30046001181fb004811dd008c80e80078
:102088009180fb0081004100d7fc07000000e000c0
:10209800c2ff32000d87fb008e00e80081804000ff
:1020a80081004400800878004c4090000e074400ee
:1020b800205798002879900002414000227c98001f
:1020c800a8c0900000c0400020c49800c829900013
:1020d8000281fb00110009008281d80001805100b3
:1020e800102c98008000eb00212c9800e6c54500d4
:1020f8008d46e8009acf160006ff3e0031ff3700f4
:102108000c86fb000c8644000c007800b042780076
:10211800a5df9f0010407800a0d79f0002818000b3
:1021280012007800e30046009181fb00c819dd0029
:102138008c80e8009180fb008180410092b79f006d
:10214800a9fc07001fb197000000e00088ff3200db
:10215800900178001201900012027800848f5100db
:102168000c0032000400e00081ff3200ec00410066
:102178000101780011027800848f510005003200b7
:10218800ec8040000400e000f9ff3a001ec0b300f4
:1021980083ff37000400e00080ff32000200e00007
:1021a8007eff32000d87fb002fd39700c831dd007a
:1021b800afdb97008780fb008180410052019000cf
:1021c800020001008e00e800818040008100440088
:1021d800800878000000e00070ff32004c4090005a
:1021e8000e074400205798002879900002414000cb
:1021f800227c9800a8c0900000c0400020c498002d
:10220800c82990000281fb00110009008281d800d2
:1022180001805100102c98008000eb00212c9800c0
:10222800e6c545008d46e8009acf1600b9fe3e0087
:10223800e4fe3700a87090000818900084fc07009e
:102248004014980051149800621498007314980070
:102258001a4578003a7c98001980fb00201c9800e9
:102268000047eb0042ff3700e24f5600c300320040
:10227800e34f560049ff3a008d80fb000081800043
:102288001000780081804400e38140009381fb00c6
:10229800c819dd008180e8009180fb008180410041
:1022a80051fc07001ec0b3000000e00030ff320000
:1022b80010007800001c9800e3fe37008ec5460029
:1022c800f8fe3700e4cf5600f1003200e8cf5600a0
:1022d80032ff3a008e81fb008381440083bf9f0058
:1022e800134690000c82fb008002eb006033b800bc
:1022f800c83bdd004836de00870376004833dd0042
:10230800482ede0006037600c82add004826de00d7
:10231800850276004822dd00d4af9f00e5af9f001c
:10232800f6af9f0087b79f00234090000082fb0014
:102338008002eb006033b80086037800050378005c
:10234800840278000002eb005fa89700efa89700ce
:102358007fa997008fb1970004004000858048004e
:10236800060149008781490090af9f00a1af9f00f7
:10237800b2af9f00c3af9f008fb89700114278009b
:102388000480fb008000eb006011b8001faa9700d2
:10239800afaa97003fab9700cfab9700000242006f
:1023a80081824a0002034b0083834b00d4af9f0015
:1023b800e5af9f00f6af9f0087b79f008fba9700e1
:1023c800354290000480fb008000eb006011b800eb
:1023d800c811dd00480ade00830172004809dd00eb
:1023e8004802de0002017200c800dd000000eb00b8
:1023f8005faa9700efaa97007fab97008fb397006b
:102408000000420081804a0002014b0083814b009a
:1024180090af9f00a1af9f00b2af9f00c3af9f00d6
:102428008fba9700454290000480fb008000eb00c3
:102438006011b800c0b79f00d1b79f00e2b79f00f6
:10244800f3b79f001faa9700afaa97003fab97006a
:10245800cfab97000402be00060340008783480004
:10246800d4af9f00e5af9f00f6af9f0087b79f00ee
:102478008fba9700554290000480fb008000eb0063
:102488006011b800c809dd004802de00830172004f
:102498004801dd006000b8005faa9700efaa970026
:1024a8007fab97008fb397000000420081804a00fd
:1024b80002014b0083814b0090af9f00a1af9f00aa
:1024c800b2af9f00c3af9f008fba970065429000dc
:1024d8000480fb008000eb006011b80080017800e8
:1024e8000001eb006000b8001faa9700afaa970090
:1024f8003fab9700cfab97000000420081804a00b5
:1025080002014b0083814b00c0b79f00d1b79f00e9
:10251800e2b79f00f3b79f008fba9700f54190008c
:102528000382fb008002eb006033b800c823dd00a3
:102538000003eb006022b8004fb09700dfb09700af
:102548006fb19700ffb197000400400085804800f4
:102558000601490087814900001498001114980069
:10256800221498003314980048fe37006dc0b30059
:10257800500020004100200016fe37008d80fb002f
:10258800008180001000780081804400e3814000d1
:102598009381fb00c819dd008180e8009180fb0071
:1025a8008180410090fb07001ec0b3000000e000de
:1025b8006ffe3200001c980023fe37008d80fb0060
:1025c8008180440001007800b04178001042780012
:1025d8000b8180001b007800e38240009582fb009d
:1025e800c82add008180e8009180fb0081804200dc
:1025f80093b79f00a4b79f007bfb07000c477800a8
:102608009fb197002fb297000000e00058fe3200fb
:10261800900378001b03900096027800858f530082
:102628003d0032000500e00051fe3200ec0043009e
:102638000fd197000103780091027800858f53002d
:1026480034003200ec8040000500e000f9ff3a0059
:102658001ec0b30052fe37008e81fb008381440008
:102668000302e8001482fb004822dd009381fb008e
:10267800030242008002eb006033b80004149800a3
:10268800151498002614980037149800fffd370099
:102698008e81fb00838144000302e8001482fb0062
:1026a8008002eb00482bdd00c823de00870373009f
:1026b8004823dd000382e8001482fb008002eb005f
:1026c800c022dd00040020000603420087834a0080
:1026d8001382fb008002eb000603420087834a0056
:1026e800e38141001382fb008002eb00c822dd0079
:1026f800040020000602420087824a006033b800c6
:10270800041498001514980026149800371498009b
:10271800defd370082d79f001ec0b3000500e00031
:1027280013fe32000600e00011fe3200c820dd0072
:102738008381fb0083804000d601900003000100e4
:10274800001c98000000e00009fe3200a875900007
:10275800bdfd37000000050021c0b30041409800ce
:10276800b000900012c2b300924098009000900010
:1027780001040100d0409000d4c2b30084cf5000bf
:10278800b9003600e1c2b300414098003001900022
:102798008040eb00114198003001900053c0b30015
:1027a8002341980030019000314198000181800058
:1027b80021099000b0009000c2409800018180007b
:1027c80021099000b00090004811de00d240980026
:1027d800b000900050419000e2409800b000900096
:1027e80002c1b300f2409800b000900022c8b300c4
:1027f80082489800b0009000e2c4b3009248980064
:10280800b0009000f2c6b300a2489800b000900053
:1028180062c7b300b24898003001900021c3b300ea
:10282800414998003001900043c3b30053499800d0
:102838003001900061499800b001900002c3b300d4
:10284800f2499800b001900081519800b0029000c0
:1028580033c3b30093529800b002900016c3b3007c
:10286800a6529800b0029000b3529800b0019000b0
:10287800c1519800b0009000d250980001818000aa
:10288800310990000200e0007e003200310990001a
:10289800b000900012417800e25098000181800059
:1028a80031099000b000900012419000f250980059
:1028b8000181800031099000b00090002241900011
:1028c800825898000181800031099000b000900082
:1028d800424190009258980001818000310990008f
:1028e800b000900052419000a258980001818000e9
:1028f80031099000b000900072419000b2589800e1
:102908000181800031099000b000900002499000d8
:10291800c25898000181800031099000b0009000f1
:1029280012499000d2589800018180003109900026
:10293800b000900022499000e25898000181800080
:1029480031099000b000900032499000f258980088
:102958000181800031099000b00090004249900048
:10296800826098000181800031099000b0009000d9
:1029780062499000926098000181800031099000be
:10298800b000900072499000a26098000181800018
:1029980031019000b0009000b26098000181800081
:1029a80041019000b0009000c26098000181800051
:1029b80041019000b00090004811de00d2609800fc
:1029c8000181800051019000e1019000b000900069
:1029d800e26098000181800051019000e1019000bf
:1029e800b0009000481add004811de0002017200b4
:1029f800c819de00f2609800018180005101900042
:102a0800e1019000b0009000836898000181800087
:102a180051019000e1019000b00090004819de00db
:102a28009268980002818000cf91de00b00090008b
:102a3800a2689800b0009000c81ade00481bdd00ac
:102a48004812de0004027300b4689800b0009000d9
:102a5800c3689800b00090004819de00d26898005a
:102a6800900090000104010021c0b300414098008b
:102a7800b000900052c1b3009240980090009000be
:102a880001040100c1c0b3000181fb00b001900046
:102a980002814100645198008140e900e1cf400083
:102aa800baff32000181fb00b001900002814100b1
:102ab800645198008140e900e1cf4000f2ff3a00fc
:102ac800b2ff3700881f780000047800b800900033
:102ad80021429000810378005740780002818000ed
:102ae800920278000500e000880032004822dd00ec
:102af8000080fb000002420095017800830f52001d
:102b0800130032000300e000080032006480420035
:102b18008002780090017800830f52000c00320088
:102b2800640040000300e000f9ff3a0000c4b3006d
:102b380021c0b30041449800804b78009800900071
:102b480008007800010001004f047800000006002a
:102b58000300e000f5ff320015009000a20190008c
:102b68000300e0001a003200a20290008001eb008e
:102b7800950f120012003200a202900043002000bc
:102b88001500e00074003200a20290008382420027
:102b9800950f12000a003200a202900064834100df
:102ba800838242001500e0000500320086017800ab
:102bb800a202900083824200950f1200f6ff3a00ad
:102bc80022029000030242001400e0003b003a0099
:102bd800920190000300e0006500320010037800c5
:102be800120290008001eb00940f130012003200d3
:102bf800120290001400e0000f003200c300200011
:102c08001202900003024200940f13000a003200df
:102c180012029000ec824100030242001400e0001e
:102c2800050032008501780012029000030242007c
:102c3800940f1300f6ff3a001202900003024200bc
:102c48001400e000130032001201900083014100db
:102c58004841900063415100e3804000c301900067
:102c6800030001000004e00030003a0021c0b30076
:102c780041449800b8009000904098009800900057
:102c880008007800010001004f04780000000600e9
:102c9800afff370020c0b3004044980010c4b30011
:102ca800804b78009800900008007800010001002f
:102cb8004f04780000000600a5ff370022019000ad
:102cc800830141004841900063415100e380400086
:102cd80093019000030001000004e0009aff320015
:102ce80020c0b300404498003800900021c4b300cd
:102cf8001140980098009000080078000100010039
:102d08004f0478000000060091ff370030c4b3007c
:102d180021c0b30041449800804b7800980090008f
:102d2800080078000100010087ff370020c0b300c9
:102d3800404498003800900041c1b3001140980009
:102d48009800900008007800010001004f04780006
:102d5800000006007eff37008001eb002202900091
:102d6800030242001400e00099ff3200d3ff37004d
:102d780020c0b3004044980040c4b300804b7800a2
:102d88009800900008007800010001004f047800c6
:102d9800000006006eff3700881f780000047800e6
:102da800380390008680e800914278005640780009
:102db80003818000130278000400e0005300320011
:102dc800c82add000080fb008082420014017800e0
:102dd800828f5200130032000200e0000800320027
:102de800640042000002780010017800828f5200cf
:102df8000c003200640040000200e000f9ff3a00d5
:102e080000c4b30021c0b30041449800004b7800cf
:102e18009800900008007800010001004f04780035
:102e2800000006000200e000f5ff320014009000e8
:102e3800130190000200e0003c003200900378008b
:102e4800130290000001eb00948f1300120032006f
:102e5800130290001400e0000f003200c2002000ae
:102e68001302900002024200948f13000a003200fd
:102e780013029000ec024100020242001400e0003c
:102e8800050032000501780013029000020242009a
:102e9800948f1300f6ff3a001302900002024200da
:102ea8001400e0000f0032009301900002814100fd
:102eb800320190000200010000c0e8004044980080
:102ec800380090008040eb00114098009800900076
:102ed80008007800010001004f0478000000060097
:102ee800d0ff370020c0b3004044980010c4b3009e
:102ef800004b78009800900008007800010001005d
:102f08004f04780000000600c6ff370030c4b30045
:102f180021c0b30041449800004b7800980090000d
:102f28000800780001000100bcff370020c0b30092
:102f38004044980040c4b300004b780098009000cb
:102f480008007800010001004f0478000000060026
:102f5800b4ff3700b000900051417800e24f5100b3
:102f6800380032000c003600e44f51003f003200b8
:102f78001e003100330020000281800033019800d8
:102f88000041eb008248780021c0b300414098001e
:102f980090009000010401000204e0000a003a00d9
:102fa8008001eb0002818000330198000041eb00b2
:102fb8008248780021c0b3004140980090009000fa
:102fc80001040100f4ff3700e14f51001300320003
:102fd80022c2b3008248780021c0b3004140980063
:102fe8009000900001040100ebff3700e54f51000d
:102ff800f7ff3a0053002000028180003301980057
:103008000041eb008248780021c0b300414098009d
:103018009000900001040100dfff3700130020003a
:1030280002818000330198000041eb00824878005b
:1030380021c0b300414098009000900001040100b5
:10304800d5ff37002300200002818000330198005b
:103058000041eb008248780021c0b300414098004d
:103068009000900001040100cbff370043002000ce
:1030780002818000330198000041eb00824878000b
:1030880021c0b30041409800900090000104010065
:10309800c1ff3700b00090000041eb00924098005b
:1030a8000181800031019000b0009000a24098009a
:1030b80031c0b30041409800900090000104010025
:1030c80022c0b3004240980030019000114198009e
:1030d800900090000104010001542200635722006f
:1030e800023b210082287800838f5000fdff3a00c0
:1030f8002154220041009800000006004000900082
:10310800e13b210001087800e184210011009800ca
:10311800e17a2100210098006156210021109800d1
:10312800016d210011109800000006001100200018
:10313800110898008000eb000108980000000600c4
:10314800e4874700889fbe008a9fbe008c9fbe0010
:103158008e1f780000047800980c90005ac5b300c0
:103168003b002000e18f540015003a005800900001
:10317800b0009000010001000004e00023003200cc
:1031880008089000e20f50000801320058003e0085
:103198000000e000a0003a004a54980050549800fb
:1031a80058009000100178008a4078000200010061
:1031b800090c9800980c9000e18f5400ebff320046
:1031c8000900e00014003a0058009000a0009000a8
:1031d800010001000004e0000f00320058009000d8
:1031e8009000900001000100f8009000e28f50006c
:1031f800b800320017003e000100e00064003a0009
:1032080051c5b300814f50001c013200980c90004a
:103218000900e000ecff32006a06440000818000eb
:10322800c00890000100e00004003200c0089000cf
:10323800a1189000e48f50004e0132004f0778002b
:103248004f06be004f05be004f04be004f00b10040
:1032580000000600e48f500081003200860039002b
:10326800e58f5000040032000000eb007004980065
:10327800980c9000e6ff3700c850900052c5b30084
:1032880082cf500011003200e2cf50000f00320010
:10329800814f500011003a0038009000104078002b
:1032a800fa4f5000fa003e000080fb00c800900072
:1032b800000040000080400090007800080078007e
:1032c80001000100980c9000d1ff370081c0ea008e
:1032d80041549800814f5000efff320031c1b300d4
:1032e8000800780076ff0700980c9000c8ff3700a8
:1032f800e40f5000860032008d003900e50f5000c1
:10330800050032000000eb00100c980070049800d3
:1033180080047800acff3700c850900050c5b30057
:1033280080cf50000d003200e2cf50000b00320079
:103338005800900010017800020001005800900029
:10334800d0009000010001000000eb00100c980074
:1033580070049800800478009bff370081c0ea0061
:1033680041549800580090001001780002000100b4
:1033780058009000d0009000010001000000eb0010
:10338800100c980070049800800478008eff3700b5
:10339800e18f5000b4ff3a000004e0001b00320047
:1033a800d8409000814f5000de003e0052c5b30067
:1033b8008240400041549800404498005954980075
:1033c800210020007104980082407800814f50004d
:1033d80002003200e24f50008cff3a000af0b700ba
:1033e80020002000408088004000200070049800e1
:1033f800980c900086ff370051c5b300a200210049
:1034080012417800814f5100ce00320079049800b3
:10341800980c90007eff3700e10f5000b9ff3a008a
:10342800c840900048509000014040004054980027
:1034380058009000100178000200010048409000f8
:103448008a4f500086003200e24f5000840032005c
:1034580020002000000c9800980c900041ff3700d5
:103468000004e000e4ff3a00408080007004980007
:10347800980c900066ff3700c850900080c040004c
:1034880041549800d85090008180fb00380190008a
:103498008100410080487800d85090008140e800c1
:1034a800515498004841900082cf50004e00390096
:1034b80051c5b300814f50007a003200e24f5000ee
:1034c800780032005000200070049800980c90009a
:1034d8004fff3700c848900080cf5000cbff3a001c
:1034e80048509000014040004054980050c5b30037
:1034f80080cf500083003200e2cf500081003200bc
:103508003000200070049800980c900040ff3700ad
:1035180058009000100178008040eb000200010084
:1035280040808000000c9800980c90000dff370038
:10353800d85090008180fb00380090008100400046
:1035480048509000114040004054980058009000a6
:10355800100178009140780002000100d8509000d6
:103568000180fb008001e800484190000281fb00d7
:10357800828f51002800350038019000000041007a
:10358800104078008a4f500055003200e24f50003a
:103598005300320050002000000c98008140e800e1
:1035a80051549800980c9000eefe3700c8489000df
:1035b8004850900001404000405498005800900046
:1035c8001001780002000100484890008a4f50001e
:1035d8001d003200e24f50001b0032000b0c980017
:1035e800980c9000dffe370051c5b300814f5000a2
:1035f80002003200e24f5000c1ff3a000af0b70063
:1036080030002000408088004000200070049800ae
:10361800980c9000fefe3700380190000000410031
:10362800104078008a4f500025003200e24f5000c9
:10363800230032000b0c98008140e8005154980098
:10364800980c9000c7fe37000af0b7004b8088003e
:1036580040002000000c9800980c9000c1fe370034
:103668000af0b700200020004080880040002000b9
:10367800000c9800980c9000bafe3700405498004f
:103688001000200070049800980c9000e0fe3700ad
:1036980011c2b3000800780089fe0700980c90005a
:1036a800dbfe37000af0b700500020004080880099
:1036b8004000200070049800980c9000d4fe370059
:1036c8000af0b7004b80880040002000000c9800ea
:1036d8008140e80051549800980c9000a1fe3700f2
:1036e8000af0b70050002000408088004000200009
:1036f800000c98008140e80051549800980c900004
:1037080098fe3700a0002100014878003000200012
:10371800408088004000200070049800980c9000b9
:10372800bbfe370079049800380090000048eb0091
:1037380051c1b3000800780061fe0700980c9000a2
:10374800b3fe3700d8409000814f5000f5ff3e008f
:1037580052c5b3008240400041549800404498004c
:10376800595498002000200070049800980c90008c
:10377800a7fe370040089000a0c490008984fb0091
:10378800e384440058009000c0009000010001004c
:103798000080fb00808f540007003d0000818000fe
:1037a80040099000c008900072199000e11890003c
:1037b800810f51000d003100608080007180800011
:1037c80061004000e08048006080880071808800c7
:1037d8004f0778004f06be004f05be004f04be00dd
:1037e8004f00b100000006009afe37004008900024
:1037f8008000eb00711898005800900010017800c4
:1038080021c0b3000200010058009000018180002f
:10381800c1089000a1c090001001780002000100ca
:1038280058009000c848900010017800020001007c
:103838005800900001818000c1089000812090000c
:1038480010017800020001005800900001818000fa
:10385800c108900081209000c808de00100178009f
:103868000200010000818000c0099000c00890009b
:103878004009900023c29000c8499000834142004b
:1038880083c1e8008120900081c0410092c590006a
:1038980081c545000007eb008004eb008e00e800be
:1038a80081bf9f0072074700818640004008900052
:1038b8000d00400010804400104578001c0078007e
:1038c800100178008a407800020001008ac545008e
:1038d8008904e80000818000c00890008e804000c4
:1038e8009180fb00818f5400f0ff39000fbf9700d3
:1038f800c0089000b17890008180fb00810f5700cc
:10390800e5ff3900e2cf55000b0032005800900067
:10391800100178008b407800020001004f07780002
:103928004f06be004f05be004f04be004f00b10059
:103938000000060047fe3700dbcfb30058009000b8
:10394800100178008b40780002000100f3ff370077
:10395800310098005240980043489800418a21005d
:1039680001087800a1892100110098008000eb006f
:10397800110898007100980000000600881f780060
:1039880000047800380190008280e8009181fb00f3
:10399800c819dd00124090000080fb000080410043
:1039a8001003780003818000130290000001eb00ef
:1039b800940f130012003200130290001400e0006c
:1039c8000f003200c20020001302900002024200e1
:1039d800940f13000a00320013029000ec02410019
:1039e800020242001400e0000500320005017800e0
:1039f8001302900002024200940f1300f6ff3a00ef
:103a080013029000020242001400e0000e0032008f
:103a180093019000028141003201900002000100f0
:103a280000c0e80040449800380090008040eb0057
:103a380011409800980090000800780001000100eb
:103a48004f0478000000060011c4b3000800780095
:103a58009bfd07004f04780000000600faff3700be
:103a6800881f780000047800b80090002141900079
:103a78004811dd00114090000080fb00000041006b
:103a88001003780003818000130290000001eb000e
:103a9800940f130012003200130290001400e0008b
:103aa8000f003200c2002000130290000202420000
:103ab800940f13000a00320013029000ec02410038
:103ac800020242001400e0000500320005017800ff
:103ad8001302900002024200940f1300f6ff3a000e
:103ae80013029000020242001400e00018003200a5
:103af8009301900082814100484190006341510048
:103b0800e3804000c3019000030001000004e000ce
:103b180009003a0021c0b30041449800b800900061
:103b2800904098009800900008007800010001007b
:103b38004f0478000000060041c1b3000800780077
:103b48005ffd07004f04780000000600faff370009
:103b580011c4b3000800780059fd07004f0478002d
:103b680000000600f4ff3700881f7800300190003d
:103b780002047800b2429000424390000582fb00a4
:103b88008483e800d04190008381fb0051c1b300d9
:103b9800838f53000c003e00a2419000c819dd003d
:103ba800924090008180fb0081814100e24f5300e8
:103bb80008003200e44f53003300320041c1b30023
:103bc800e14f5300250032003dfd07004f04780007
:103bd800000006000400e000170032008000eb003f
:103be8008180e8000101410013497800300190000c
:103bf80001014100330378004833de001641980084
:103c0800810f52000b003600300190008180e800df
:103c18000101410013497800300190000101410081
:103c2800330378004833de0016419800810f5200b4
:103c3800f5ff3e003004900085c2e800454098003a
:103c48008040eb00114498009000900001000100b2
:103c58004f04780000000600deff37000400e00093
:103c6800f5ff32008000eb0001014100334378008a
:103c7800264198008100e800810f5200edff3600d0
:103c880030019000f8ff37000400e000eaff32003e
:103c98008000eb000101410013447800284198009e
:103ca8003001900001014100130378009303900054
:103cb800483cdd004833de0006037400c83bde00e4
:103cc80036419800e4804000300190000101410035
:103cd800234390000649780030019000010141001b
:103ce8003344900018419800e4814100810f52004c
:103cf800d0ff360030019000e6ff3700889fbe00f5
:103d08008a1f780000057800ba04900089027800bc
:103d18009943900029429000ca419000e4c15100a3
:103d2800394190008381fb000283fb0011000900e8
:103d38008681d800010378000600e00009003a00f7
:103d48004822dd008783fb0007024200e24f510052
:103d58004b003200e44f510008003200e14f51009f
:103d68002e00320041c1b3000a007800d4fc0700dd
:103d78004f0578004f04be0000000600c219de009f
:103d88001b003200e48044000001eb000201e8005f
:103d9800114490000884fb008004eb00484bdd00d0
:103da800c843de00870373004843dd0021449000c8
:103db8008884fb00080020000604440087844c0027
:103dc8001183fb008003eb000804430089844b0047
:103dd80031439000c833dd0006002000061a440075
:103de800079a4c00e4804000830f5100e7ff390038
:103df80021c0b300414598008040eb0091429800f3
:103e08009a0090000a007800010001004f05780030
:103e18004f04be0000000600d8ff37000300e00092
:103e2800f3ff32000001eb0082804400c1409000a3
:103e3800015a78000201e800830f510007003100a1
:103e4800ba04900082804400c1409000015a780072
:103e58000201e800830f5100f9ff3900ba0290000f
:103e680021c0b300414598008040eb009142980082
:103e78009a0090000a00780001000100e3ff370073
:103e88008301d100daff3200e48044000001eb0036
:103e980091439000c83bdd001183fb00069a430064
:103ea8000201e8008180e800828f5100d0ff3600cf
:103eb80091439000c83bdd001183fb00069a430044
:103ec8000201e8008180e800828f5100f0ff3e0087
:103ed800c7ff37004000900081db210011089800df
:103ee80021cc21007100980041d3210001089800dd
:103ef800000006004000900021e8210021089800f9
:103f0800000006000000fa0001eca8000080fa009a
:103f1800000006000400fa00000f7800110798005e
:103f28001e007800e20f500007003200e30f500037
:103f380008003200e10f50000a003a009e0090008d
:103f480041618800080037009e00900041628800a7
:103f5800050037009e0090004163880000000000c3
:103f680001003700000000000080fa000000060091
:103f78000400fa00000f7800110798001e0078006e
:103f8800e20f500007003200e30f50000800320033
:103f9800e10f50000a003a009e009000316188004d
:103fa800080037009e009000316288000500370045
:103fb8009e00900031638800000000000100370077
:103fc800000000000080fa00000006000200fa006d
:103fd800000f78001e007800e20f50000d0032003c
:103fe800e30f500014003200e10f50001c003a00ab
:103ff800106180000090a100e3c12000113224006c
:10400800d2bc2a00820978008109780010618800f2
:1040180014003700106280000090a100e3c1200066
:1040280011322400d2bc2a00820978008109780064
:10403800106288000b003700106380000090a10018
:10404800e3c1200011322400d2bc2a008209780082
:104058008109780010638800000000000100370023
:10406800000000000080fa00000006000200fa00cc
:10407800000f78001e007800e20f50000d0032009b
:10408800e30f500014003200e10f50001c003a000a
:10409800106180000080a100e3c1200011322400db
:1040a800d2bc2a0082097800810978001061880052
:1040b80014003700106280000080a100e3c12000d6
:1040c80011322400d2bc2a008209780081097800c4
:1040d800106288000b003700106380000080a10088
:1040e800e3c1200011322400d2bc2a0082097800e2
:1040f8008109780010638800000000000100370083
:10410800000000000080fa00000006000000fa002d
:1041180040442000a0808800a080800080007800b3
:10412800100020007bff07008000eb00100020003b
:104138008fff070010002000a4ff070010002000d8
:10414800caff07006fff07000080fa0000000600a2
:104158000200fa00a08080000000e8006101b800b9
:10416800b08080008000eb00809ab900828bb90093
:1041780086027800050242000010b80001024200e1
:104188008400780042062000030020000ff2070098
:10419800000f78009e0078001000200074ff0700d0
:1041a8001ed0bf008000fb00b0808000008040006f
:1041b800b0808800b180800030062000808f5000d9
:1041c8000500360040062000b080880000c0eb00e3
:1041d8001ef0b70005003700b08080000000e00046
:1041e80002003a0010c0b3001ef0b70000732500ab
:1041f80051002000d30307000080fa0000000600e9
:104208000000fa0076030700c0ff0700d0ff070090
:10421800feff37000000fa00022cef00042cef002c
:10422800062cef000a2cef001a2cef001e2cef00d2
:104238000000210000618800402020000062880002
:10424800402020000063880000002c00e3c120000b
:1042580011322400d2bc2a00820978008109780032
:104268001061880000002c00e3c1200011322400f6
:10427800d2bc2a008209780081097800106288007f
:1042880000002c00e3c1200011322400d2bc2a0017
:10429800820978008109780010638800800f200067
:1042a800e3c1200011322400d2bc2a008209780020
:1042b8008109780020618800800f2000e3c1200078
:1042c80011322400d2bc2a008209780081097800c2
:1042d80020628800800f2000e3c1200011322400f2
:1042e800d2bc2a00820978008109780020638800fe
:1042f800262cef00462cef00662cef00282cef0050
:10430800482cef00682cef002a2cef004a2cef0015
:104318006a2cef002c2cef004c2cef006c2cef00db
:10432800322cef00522cef00722cef00342cef00ef
:10433800542cef00742cef003a2cef005a2cef00ad
:104348007a2cef003c2cef005c2cef007c2cef006b
:104358003e2cef005e2cef007e2cef00201c22008c
:10436800090007000728a9002728a80010902000a6
:10437800006088000080fa00000006000000fa00d3
:104388000080fa00000006000200fa00000f780022
:104398001e007800e08088000080fa000000060017
:1043a8000000fa000080fa00000006000000fa0091
:1043b8003140800000202000008060000000e00004
:1043c80002003200f6ff07000bc8a9000080fa00bf
:1043d800000006000000fa000080fa000000060055
:1043e8000000fa00314080000020200000806000ba
:1043f8000000e00002003200f6ff07000be8a90009
:104408000080fa00000006000000fa000080fa00b0
:10441800000006000000fa00314080000020200063
:10442800008060000000e00002003200f6ff070094
:104438000c08a9000080fa00000006000000fa003d
:10444800003a80000080fa00000006000200fa002e
:10445800faff0700000f78001e007800240007000c
:104468000004e0000200320000002800710007008c
:104478001e0078002a0007000004e0000200320055
:10448800000024006b0007001e00780032000700bf
:104498000004e00002003200002020006500070050
:1044a8001e0078003a0007000004e0000200320015
:1044b800000820005f0007001e0078004200070087
:1044c8000004e00002003200000420005900070048
:1044d8001e0078004a0007000004e00002003200d5
:1044e80000012000530007000080fa0000000600c9
:1044f8000400fa00100798000040eb00004f780015
:104508001e0090000000e00002003d0010c0b30053
:10451800004f78001e4078000080fa000000060076
:104528000400fa00100798000040eb00004f7800e4
:104538009e00900000002400008060000000e00061
:104548000200320010c0b300004f78001e4078000f
:104558000080fa00000006000400fa001007980026
:104568000040eb00004f78009e00900000202000e3
:10457800008060000000e0000200320010c0b300bc
:10458800004f78001e4078000080fa000000060006
:104598000400fa00100798000040eb00004f780074
:1045a8009e00900000082000008060000000e000ed
:1045b8000200320010c0b300004f78001e4078009f
:1045c8000080fa00000006000400fa0010079800b6
:1045d8000040eb00004f78009e009000000420008f
:1045e800008060000000e0000200320010c0b3004c
:1045f800004f78001e4078000080fa000000060096
:104608000400fa00100798000040eb00004f780003
:104618001e009000700060000000e0000200320000
:1046280010c0b300004f78001e4078000080fa00e8
:10463800000006000200fa00000f78009e80ea00e1
:10464800003a800000806000003a88000080fa008c
:10465800000006000000fa004027ef000080fa0082
:10466800000006000000060000000600000005002b
:104678000280fb000000ea004f00de000000060098
:104688000000050080407800f0c7b30002c8b300fe
:1046980082cf5000030032000100fb0000f0a700a9
:1046a8000000ea000000060001002800810f500009
:1046b8000300320000f0a7000000ea000000060036
:1046c800f0ff270000000600020020000300280079
:1046d800820f5000838f58000b0032000001be008b
:1046e800e00f5000e08f5800020035000200be00c5
:1046f8000000060060011000e08118000200be0002
:1047080000000600fbff3700f2ff2f00f3ff270031
:104718000200be0000000600f6ff37006022b80065
:1047280006002000070028000400e1000588e100d9
:104738000690e1000798e100140032000203be0071
:104748000002be00e00f5000e08f5800e00f590053
:10475800e08f5900030035000400be000601be00ca
:10476800000006006000b8006011b80004025000a4
:104778008582580006035900878359000400be004b
:104788000601be0000000600f6ff3700f4ff2f0008
:10479800f5ff2f00f6ff2f00f7ff27000400be00eb
:1047a8000601be0000000600eeff3700889fbe002d
:1047b8000004be006011b80080f007000000e000af
:1047c80001003d0009f0a200880178000901780085
:1047d80003007800820078004f04be000000060045
:1047e800889fbe008a9fbe000004be000205be006e
:1047f8006022b8006033b80066f007000000e000ef
:1048080001003d000bf0a20088037800090378003e
:104818008a0278000b02780007007800860078008a
:1048280005017800840178004f05be004f04be00e2
:10483800000006000000fa000021ef0070112100be
:10484800100888000001280020088800c080800027
:104858000000e00002003a00408322002400070024
:104868000068a9002068a800805922008040eb0059
:10487800014878000080fa00000006000200fa00f3
:10488800000f78009e0078001108880080592200e7
:104898008040eb00014878000080fa000000060024
:1048a8000000fa00100880000080fa0000000600ee
:1048b8000200fa00000f78009e00780001088800c6
:1048c800805922008040eb00014878000080fa00ff
:1048d800000006000000fa00000880000080fa00ce
:1048e800000006000000fa000080fa000000060040
:1048f8000200fa00000f78002068a9009e007800e6
:10490800c18088002068a8000080fa000000060026
:104918000000fa00805922008040eb00014878002e
:104928002068a80005e1a8000080fa000000060041
:104938000000fa0005e1a9002068a9000080fa003b
:10494800000006000200fa0080592200104f78008b
:104958001e4078000004e000030032008059220065
:104968008040eb00014878001e4078000080fa0083
:10497800000006000000fa0090592200104078005c
:104988000080fb000080fa00000006000000fa002a
:10499800905922008040eb00014878000080fa001e
:1049a800000006000000fa008000200000118800c6
:1049b8002222ef00f03820004011880021e2a800f0
:1049c8002342a8000080fa00000006000000fa0058
:1049d8000000000010118000610060000000e0008d
:1049e800fcff320010118000620060000000e0004f
:1049f800010032002222a900301180000040780016
:104a08000080fa00000006000200fa00004f78005b
:104a180000000000111180000020200000806000cc
:104a28000000e000fbff3a001e80fb002011880018
:104a38000080fa00000006000000fa001011800053
:104a480000407800614060000080fb0000f0a70093
:104a58000000ea000000ea004f00de000040780095
:104a68000080fa00000006000000fa001111800022
:104a780000202000008060000000e00007003a00ed
:104a88001111800000402000008060000000e0005c
:104a98000200320010002000010037000000eb0087
:104aa800004078000080fa00000006000000fa00cc
:104ab800101180004800de00614060000080fb00ab
:104ac80000f0a7000000ea000000ea004f00de0046
:104ad800004078000080fa00000006000000fa009c
:104ae800101180000080fa00000006000000fa00a3
:104af80021e2a8002342a8000080fa000000060076
:104b08000000fa0021e2a9002342a9000080fa006f
:104b1800000006000000fa00042eef00142eef003b
:104b2800242eef00342eef00442eef00542eef0019
:104b3800642eef0030f9210000708800f037200063
:104b480080708800f0ff23000071880000142000a6
:104b58008071880000002f0000728800100020007b
:104b680080728800003c2000007388000c2eef0043
:104b78001c2eef002c2eef003c2eef004c2eef00e9
:104b88005c2eef006c2eef000a2eef001a2eef00bd
:104b98002a2eef003a2eef004a2eef005a2eef0091
:104ba8006a2eef00062eef00162eef00262eef00dd
:104bb800362eef00462eef00562eef00662eef0041
:104bc8003081210070708800f0102000f07088009b
:104bd800300020007071880000002f00707288007b
:104be800113a8000f00b2000008160006004200072
:104bf80071052000237420008049780081497800dd
:104c08008249780021348000f00f2c000080600079
:104c18000080a000203488002136800000f82f0092
:104c2800808060005003200001007000203688005a
:104c380071348000f00f2c00008060000080a0001c
:104c480070348800103a8000000178000260a000eb
:104c5800600420007105200023742000804978003a
:104c680081497800824978000080fa000000060037
:104c7800014078003180800001040100208080001c
:104c88000004010010808000000401000080800002
:104c9800000401000000fa00889fbe008a1f780007
:104ca8000004be00a0000700c03d2200f600070077
:104cb80013c0b30000c1eb00813e2200603c22001b
:104cc80023fb07006a3c22000a00780002f907006b
:104cd8000a00780009f907000a0078007dfc07003f
:104ce8000a00780083fc07000a007800a00007008b
:104cf800c13d22000a007800f00007000081800012
:104d08001100200031009800f4874700748557008f
:104d1800fa00570008000900311d7800315d78005d
:104d28003a01b1008900780029010700008180005c
:104d3800015f2800110098008160280001087800b0
:104d4800c0632200e01e890020642200f01e890052
:104d580060642200001f8900a0642200101f8900df
:104d680008007800200107008a0778004f057800be
:104d78004f04be000080fa0000000600603c2200dc
:104d880090007800010401001a0137003080880083
:104d980021808800128088000380880000000600b7
:104da800c1632200010878002164220011009800e4
:104db8006164220021009800a1642200310098005b
:044dc80000000600e1
:020000040000fa
:104dcc0022100000881300008000000098250000cd
:104ddc00020000008000000018100000020000001b
:104dec0080000000782500002000000080000000fa
:104dfc001a1000000200000082000000ffff0000fb
:104e0c001010000004000000800000001c100000c6
:104e1c0002000000800000001410000004000000dc
:104e2c00800000001e100000020000008200000044
:104e3c0001000000aa2300003e01000080000000d9
:104e4c00201000000200000082000000aa230000d5
:104e5c000010000008000000800000004225000047
:104e6c003600000080000000e82400005a0000001a
:104e7c008000000008100000080000008000000006
:044e8c000000000022
:020000040000fa
:104e90000000fa0000102300203a88004827ef00a5
:104ea0004e27ef00a0042000303a88006027ef0072
:104eb0006227ef006427ef006627ef006a27ef0004
:104ec0006c27ef001200200080072000a1092000bd
:104ed0003374200080497800814978008249780045
:104ee00012002000600420007105200023742000bf
:104ef00080497800814978008249780000000000ec
:104f0000103a8000610060000000e000fcff3a0001
:104f100000000000113a80000002200000806000c4
:104f20000000e000fbff32000080fa0000000600f5
:104f3000008180008000eb000108780011009800db
:104f40002100980031009800410098006011b800dd
:104f500052009800630098007100980001089800c2
:104f6000110898002108980031089800410898001d
:104f70005108980000000600018180007101900036
:104f8000e10f5100010036000000060071019000a1
:104f9000e80141008381410083814000800978005d
:104fa0000201e800f2009800000006000200fa008a
:104fb000000f780021028000200f20000080600098
:104fc0001e007000200288000080fa000000060029
:104fd0000000fa00c3e8a800000000000000000084
:104fe0000080fa00000006000000fa00cbfe070077
:104ff000a7ff0700630007006cfe070087fc07009f
:10500000060007000dfe0700f1ff07000002200068
:10501000e6ff07000080fa00000006000000fa002a
:1050200023882200a2872200218722006086220096
:1050300058ff0700f487470074805700016128007b
:105040000800090031187800315878003001b100ab
:10505000110020008038210010ff0700f48757005e
:105060000080fa00000006000000fa0048ff070078
:105070000080fa00000006000000060000000500a5
:10508000000005000000050000000500000006000b
:10509000c183220001087800e183220011009800fa
:1050a0000184220021009800218422003100980010
:1050b0004184220041009800618422005100980040
:1050c0000000060051009800000006000200fa00ef
:1050d000004f78001e4078004dfe07000080fa0067
:1050e000000006000000fa003afe07000080fa0007
:1050f000000006000000fa0051fe07000080fa00e0
:10510000000006000000fa0059fe07000080fa00c7
:10511000000006000200fa00000f78009e007800f0
:10512000d18088000000fe000080fa000000060028
:105130000000fa0080572200800778000059220002
:0c514000000188000080fa00000006005a
:020000040000fa
:10514c00f03fb1000180b10006003500ee0309000c
:10515c0000000000403fb1000180b100fbff3d00aa
:10516c001000b000203fb0000200350000800900a4
:08517c00000000000000060025
:020000040000fa
:105184000000fa00e1428000f0f82f000080600087
:105194000040a000e042880001428000f0ff2800a7
:1051a4000080600000c0a000004288000080fa0077
:1051b40000000600809fbe00ec805700310078009c
:1051c400808088001100780012f0b7004f00be0004
:1051d400000006000000fa0021089800fa80570039
:1051e400310898000080fa00000006008000780072
:1051f400804e2200c2f03700804e2200f3f03700c8
:020000040000fa
:020000040005f5
:045fe000ceff0000f0
:020000040000fa
:020000040005f5
:045fe400ffff0000bb
:020000040000fa
:020000040005f5
:045fe8007fff000037
:020000040000fa
:020000040005f5
:045fec007fff000033
:020000040000fa
:020000040005f5
:045ff00078ff000036
:020000040000fa
:020000040005f5
:045ff400ffffff00ac
:00000001FF
