:020000040000fa
:080000000002040000000000f2
:020000040000fa
:0400080002040000ee
:020000040000fa
:04000c0042040000aa
:020000040000fa
:040010009604000052
:020000040000fa
:040014001e040000c6
:020000040000fa
:040018005e04000082
:020000040000fa
:04001c007a04000062
:020000040000fa
:04002000b204000026
:020000040000fa
:04002400e8060000ea
:020000040000fa
:04002800ee060000e0
:020000040000fa
:04002c00ee060000dc
:020000040000fa
:04003000ee060000d8
:020000040000fa
:04003400ee060000d4
:020000040000fa
:04003800ee060000d0
:020000040000fa
:04003c00ee060000cc
:020000040000fa
:04004000ee060000c8
:020000040000fa
:040044008203000033
:020000040000fa
:04004800ee060000c0
:020000040000fa
:04004c00ee060000bc
:020000040000fa
:04005000ee060000b8
:020000040000fa
:04005400ee060000b4
:020000040000fa
:04005800ee060000b0
:020000040000fa
:04005c00d6040000c6
:020000040000fa
:04006000ee060000a8
:020000040000fa
:04006400ee060000a4
:020000040000fa
:04006800ee060000a0
:020000040000fa
:04006c00ee0600009c
:020000040000fa
:04007000ee06000098
:020000040000fa
:04007400ee06000094
:020000040000fa
:04007800ee06000090
:020000040000fa
:04007c00ee0600008c
:020000040000fa
:04008000ee06000088
:020000040000fa
:04008400ee06000084
:020000040000fa
:04008800ee06000080
:020000040000fa
:04008c00ee0600007c
:020000040000fa
:04009000ee06000078
:020000040000fa
:04009400ee06000074
:020000040000fa
:04009800ee06000070
:020000040000fa
:04009c00ee0600006c
:020000040000fa
:0400a000ee06000068
:020000040000fa
:0400a400ee06000064
:020000040000fa
:0400a800ee06000060
:020000040000fa
:0400ac00ee0600005c
:020000040000fa
:0400b000ee06000058
:020000040000fa
:0400b400ee06000054
:020000040000fa
:0400b800ee06000050
:020000040000fa
:0400bc00ee0600004c
:020000040000fa
:0400c000ee06000048
:020000040000fa
:0400c400ee06000044
:020000040000fa
:0400c800ee06000040
:020000040000fa
:0400cc00ee0600003c
:020000040000fa
:0400d000ee06000038
:020000040000fa
:0400d400ee06000034
:020000040000fa
:0400d800ee06000030
:020000040000fa
:0400dc00ee0600002c
:020000040000fa
:0400e000ee06000028
:020000040000fa
:0400e400ee06000024
:020000040000fa
:0400e800ee06000020
:020000040000fa
:0400ec00ee0600001c
:020000040000fa
:0400f000ee06000018
:020000040000fa
:0400f400ee06000014
:020000040000fa
:0400f800ee06000010
:020000040000fa
:0400fc00ee0600000c
:020000040000fa
:04010000ee06000007
:020000040000fa
:04010400ee06000003
:020000040000fa
:04010800ee060000ff
:020000040000fa
:04010c00e20300000a
:020000040000fa
:04011000ee060000f7
:020000040000fa
:04011400ee060000f3
:020000040000fa
:04011800ee060000ef
:020000040000fa
:04011c00ee060000eb
:020000040000fa
:04012000ee060000e7
:020000040000fa
:04012400ee060000e3
:020000040000fa
:04012800ee060000df
:020000040000fa
:04012c00ee060000db
:020000040000fa
:04013000ee060000d7
:020000040000fa
:04013400ee060000d3
:020000040000fa
:04013800ee060000cf
:020000040000fa
:04013c00ee060000cb
:020000040000fa
:04014000ee060000c7
:020000040000fa
:04014400ee060000c3
:020000040000fa
:04014800ee060000bf
:020000040000fa
:04014c00ee060000bb
:020000040000fa
:04015000ee060000b7
:020000040000fa
:04015400ee060000b3
:020000040000fa
:04015800ee060000af
:020000040000fa
:04015c00ee060000ab
:020000040000fa
:04016000ee060000a7
:020000040000fa
:04016400ee060000a3
:020000040000fa
:04016800ee0600009f
:020000040000fa
:04016c00ee0600009b
:020000040000fa
:04017000ee06000097
:020000040000fa
:04017400ee06000093
:020000040000fa
:04017800ee0600008f
:020000040000fa
:04017c00ee0600008b
:020000040000fa
:04018000ee06000087
:020000040000fa
:04018400ee06000083
:020000040000fa
:04018800ee0600007f
:020000040000fa
:04018c00ee0600007b
:020000040000fa
:04019000ee06000077
:020000040000fa
:04019400ee06000073
:020000040000fa
:04019800ee0600006f
:020000040000fa
:04019c00ee0600006b
:020000040000fa
:0401a000ee06000067
:020000040000fa
:0401a400ee06000063
:020000040000fa
:0401a800ee0600005f
:020000040000fa
:0401ac00ee0600005b
:020000040000fa
:0401b000ee06000057
:020000040000fa
:0401b400ee06000053
:020000040000fa
:0401b800ee0600004f
:020000040000fa
:0401bc00ee0600004b
:020000040000fa
:0401c000ee06000047
:020000040000fa
:0401c400ee06000043
:020000040000fa
:0401c800ee0600003f
:020000040000fa
:0401cc00ee0600003b
:020000040000fa
:0401d000ee06000037
:020000040000fa
:0401d400ee06000033
:020000040000fa
:0401d800ee0600002f
:020000040000fa
:0401dc00ee0600002b
:020000040000fa
:0401e000ee06000027
:020000040000fa
:0401e400ee06000023
:020000040000fa
:0401e800ee0600001f
:020000040000fa
:0401ec00ee0600001b
:020000040000fa
:0401f000ee06000017
:020000040000fa
:0401f400ee06000013
:020000040000fa
:0401f800ee0600000f
:020000040000fa
:0401fc00ee0600000b
:020000040000fa
:04020000ee06000006
:020000040000fa
:04020400ee06000002
:020000040000fa
:04020800ee060000fe
:020000040000fa
:04020c00ee060000fa
:020000040000fa
:04021000ee060000f6
:020000040000fa
:04021400ee060000f2
:020000040000fa
:04021800ee060000ee
:020000040000fa
:04021c00ee060000ea
:020000040000fa
:04022000ee060000e6
:020000040000fa
:04022400ee060000e2
:020000040000fa
:04022800ee060000de
:020000040000fa
:04022c00ee060000da
:020000040000fa
:04023000ee060000d6
:020000040000fa
:04023400ee060000d2
:020000040000fa
:04023800ee060000ce
:020000040000fa
:04023c00ee060000ca
:020000040000fa
:04024000ee060000c6
:020000040000fa
:04024400ee060000c2
:020000040000fa
:04024800ee060000be
:020000040000fa
:04024c00ee060000ba
:020000040000fa
:04025000ee060000b6
:020000040000fa
:04025400ee060000b2
:020000040000fa
:04025800ee060000ae
:020000040000fa
:04025c00ee060000aa
:020000040000fa
:04026000ee060000a6
:020000040000fa
:04026400ee060000a2
:020000040000fa
:04026800ee0600009e
:020000040000fa
:04026c00ee0600009a
:020000040000fa
:04027000ee06000096
:020000040000fa
:04027400ee06000092
:020000040000fa
:04027800ee0600008e
:020000040000fa
:04027c00ee0600008a
:020000040000fa
:04028000ee06000086
:020000040000fa
:100400004fb022000eff27000e0188000000000000
:10041000000020000000e000020032000001200087
:1004200020028800140007007f0207000000e0009f
:1004300003003a002063230001002000020037007f
:100440000000200001002000810f70000100320038
:100450000f000700000020000000e0000200320052
:1004600000000200000000006a52020000000000cc
:100470000040da000000fe00400320000000e00021
:1004800002003200002020009001880000000600d9
:10049000a1028800800478000000eb001f003700f4
:1004a000e284440054a0b4009905ba00e2844400f8
:1004b00054a0b4009906ba00e284440054a0b400e9
:1004c0000006eb00476fde00fd07b200ae018800ba
:1004d000636ce10003003a000ad801000000eb0061
:1004e0000e003700606ce10008003a00004deb00a0
:1004f0000a05e800020039003420ec000af0a000f0
:100500008b05e900f9ff3e00040037006168e10057
:10051000010032000086eb000b00070019c7ba008b
:100520000e04e0001905ba0003003a000a00e000da
:10053000dbff3a0000000600fe07b200ae028800b2
:100540008a047800f5ff37000cd0a300e20f4d00bd
:100550001c003b0089027800354dba000a05e8000e
:10056000020039003420ec000af0a0008b05e900fd
:100570000f003200254dba000a05e80002003900dc
:100580003420ec000af0a0008b05e90008003200de
:100590000c00e0000600320015cdba000a05e800a4
:1005a000020039003420ec000af0a0008b05e900bd
:1005b0008984e80054a0b4000b00e000e2ff3a0098
:1005c000000006009902ba00055d78008b05e9007d
:1005d000f7ff3200c82ade00055d78008b05e900d0
:1005e000f3ff32000c00e000f1ff320019ddba0029
:1005f000eeff37003c52040000000000f8520400f7
:1006000000000000fa52040000000000e052040064
:1006100000000000e452040000000000e852040062
:1006200000000000ec52040000000000b84204008a
:1006300000000000be42040000000000c2420400ae
:1006400000000000c642040000000000b62e0400b6
:10065000000000002630040000000000a02f04006d
:1006600000000000702d040000000000622904005a
:10067000000000005829040000000000824e040021
:1006800000000000844e0400000000008c4e0400b6
:1006900000000000884e0400000000008a4e0400a4
:1006a00000000000864e040000000000122004003c
:1006b000000000003022040000000000b62004000a
:1006c000000000002020040000000000cc200400f6
:1006d0000000000006240400000000000c0c0400d0
:1006e000000000009c0b0400000000000c1004003f
:1006f000000000009a1004000000000072170400bf
:10070000000000003600f800809fbe00829fbe00ff
:10071000849fbe00869fbe00f08e80000000e00037
:10072000010032000000010020b022009040900043
:100730008140e8001140980011c0b30001487800e2
:1007400000e8a9004f03be004f02be004f01be00eb
:100750004f00be003600f900004006003600f800e9
:10076000809fbe00829fbe00849fbe00869fbe0009
:100770003200f8003400f80010002000a0018800ca
:100780000020200000d0fe0001a8ab0005003200d0
:10079000008f80000000e000010032000000010036
:1007a00001a8a9003400f9003200f9004f03be008f
:1007b0004f02be004f01be004f00be003600f900e0
:1007c000004006003600f800809fbe00829fbe00f9
:1007d000849fbe00869fbe00108f80000000e00056
:1007e00001003200000001000728a9004f03be00ed
:1007f0004f02be004f01be004f00be003600f900a0
:10080000004006003600f800809fbe00829fbe00b8
:10081000849fbe00869fbe00c028a9000000eb0098
:10082000662307004f03be004f02be004f01be000b
:100830004f00be003600f900004006003600f80008
:10084000809fbe00829fbe00849fbe00869fbe0028
:10085000208c220080077800a08d220000018800f3
:10086000c048a90010002000542307004f03be0019
:100870004f02be004f01be004f00be003600f9001f
:10088000004006003600f800809fbe00829fbe0038
:10089000849fbe00869fbe00c068a9002000200083
:1008a000462307004f03be004f02be004f01be00ab
:1008b0004f00be003600f900004006003600f80088
:1008c000809fbe00829fbe00849fbe00869fbe00a8
:1008d000c088a90030002000382307004f03be0065
:1008e0004f02be004f01be004f00be003600f900af
:1008f000004006003600f800809fbe00829fbe00c8
:10090000849fbe00869fbe00c0a8a90040002000b2
:100910002a2307004f03be004f02be004f01be0056
:100920004f00be003600f900004006003600f80017
:10093000809fbe00829fbe00849fbe00869fbe0037
:10094000c608a900700020001c2307004f03be004a
:100950004f02be004f01be004f00be003600f9003e
:10096000004006003600f800809fbe00829fbe0057
:10097000849fbe00869fbe00c4a8ab0003003a005f
:10098000c488ab0005003a00ffff3700c4a8a900e7
:100990009000200009230700f9ff3700c488a90050
:1009a000a000200005230700f7ff37003600f800fd
:1009b000809fbe00829fbe00849fbe00869fbe00b7
:1009c0003200f8003400f80010002000a001880078
:1009d0000020200000d0fe00350ea800e826070009
:1009e00070418900005322003f09070001a8a900b7
:1009f00060722200bf260700a07f22004522070068
:100a0000f0702200e411e30002003e00e431ec004b
:100a10000060fe00a6240700502a81006145810085
:100a20000181b900e08a220010084100509049007d
:100a3000934581000198b90072458100834581008a
:100a4000000051008180590070458900814589006e
:100a5000410add004f01de0002017200924589006b
:100a600032458900502a81000081b900020141000d
:100a7000838149000300780000f0a7000080ea00ad
:100a8000412a8100018ab9000402420085824a009d
:100a90000501780002f0a7000281ea000200400090
:100aa00040458900a24581000280b900628b220086
:100ab0001209400052914800d1458100a4458100af
:100ac0000489b900b0458100c14581000201500090
:100ad00083815800b2458900c3458900411add0071
:100ae0004f10de000000720000017800d045890040
:100af00050458900608822001004e0001600320092
:100b0000d1288100601a2d00808f5000ab00320088
:100b10009b2607007141810001005000e0418900df
:100b2000b1260700962607007141810001005000a0
:100b3000f0418900350ea9003400f9003200f900b7
:100b40004f03be004f02be004f01be004f00be006b
:100b50003600f9000040060061398100004581003f
:100b60000000e000670035000008a30069003200c3
:100b7000837f220014c0b30084497800f3448100cd
:100b80000080ea0003006000f04489000000eb00f0
:100b900000458900903f81000028a3000300320037
:100ba000f34481000300a000f34489000018a3006f
:100bb00003003200f34481000310a000f3448900d5
:100bc0000008a30003003200f34481000320a000ca
:100bd000f34489000038a30003003200f044810090
:100be0000030a000f0448900507322001004e0009f
:100bf0000b0032000100e00009003200f2805000da
:100c0000e38f500006003600907f22001004e000c1
:100c100003003a00f044810000f0a000f044890095
:100c2000f04481000000e00003003a00005322007d
:100c300011c0b30071f09b00708822001004e00026
:100c4000050032000053220011c0b30061f09b0088
:100c5000708822000048eb00808822001004e00029
:100c6000050032000040eb0001532200e0f09b0041
:100c700081882200804878005144810060448100ce
:100c8000808f500005003200604481005144810093
:100c9000010068000000e00027003500604481008a
:100ca00050448900634481008044810083007800bf
:100cb00001f0a7008100ea0001f0a7008180ea00ae
:100cc000810f500001003d00010078000300e000aa
:100cd0002000350010358900c0388100e40f500035
:100ce00027003200e40f50001c003600e60f5000d1
:100cf00023003200e60f5000210039006000200080
:100d00001f003700937f220014c0b300844978008d
:100d100095ff3700837f22001304e00097ff320025
:100d2000f34481000300a100f3448900837f220083
:100d30008049eb0091ff3700403981007000680066
:100d400040398900403981000050a00040398900b5
:100d5000d2ff37000000ea00deff3700e10f50004d
:100d6000070032000000e00012003200e20f5000e5
:100d700003003200e30f5000010032006000200049
:100d80001045890001358100e1448900f334810078
:100d9000d3448900e4458100c44489003045810082
:100da000b0448900a2448900f13081007144890077
:100db00053ff370040002000f1ff3700c0288100ba
:100dc0000018a30052ff320000000000feff3700b1
:100dd0003600f80080002000f72507003600f800f4
:100de000c8c8bf000080fb000010b000f22507005b
:100df000f03fb1000180b10006003500ee030900ac
:100e000000000000403fb1000180b100fbff3d0049
:100e10001000b000203fb000020035000080090043
:100e20000000000000000600000005008f1fd10038
:100e30000c0007008f87e9000000e00000000600ba
:100e4000809feb00070007008f87e9000000e000ab
:100e500000000600140020003d003700f4ff2f00c2
:100e60003b003700889fbe008a9fbe008c9fbe005b
:100e70000404be000605be00809fbe00829fbe0027
:100e800021000700040678000800be000a01be0029
:100e90001d000700840678004f03be004f02be000d
:100ea0008d4f76007fb0970013003300f0ff2f00c6
:100eb0008b8f6b0006003b000d0666000c00a70040
:100ec0000a00370007f0a600100020000a003700d3
:100ed000880f5200898f5a008a0f5b008b8f5b004e
:100ee000030039001000200001003e000000200037
:100ef00007f0a7000000ea004f06be004f05be0045
:100f00004f04be000000060005ff270005826100b7
:100f1000070032000428e10001003200240005002f
:100f20000600070001003a0044000500040805001f
:100f300002000700f9ff3a00140005006f8261000b
:100f400081027000850271008502720000000600b7
:100f5000889fbe008a9fbe00841f7800170007008c
:100f60004f00780011003300f0ff2f00838f6c00da
:100f700006003b00040565000a00a70008003700d2
:100f800009f0a6001000200008003700820f54006e
:100f9000838f5c00030039001000200001003e0038
:100fa0000000200009f0a7000000ea004f05be0085
:100fb0004f04be000000e000000006000004be0078
:100fc000060007000003be000405be000200be00cc
:100fd00002000700844f750000000600c70ade000b
:100fe000f107b200f50fb20008003200e1cf420075
:100ff000020032000170a00024000500810f700083
:10100000010032000408050044000500810f700053
:1010100002003a00140005008502e90000004000cb
:1010200081c04800fcff3b000170a00024000500c7
:020000040000fa
:101030000100000046110000000000000000000058
:10104000ffff00000c0c00009c0b00000c100000c7
:101050009a1000007217000000000000000000005d
:101060000000000000000000000000000000000080
:101070004a7500006c200000203200002032000081
:101080003032000035310000323a000034310000c7
:081090003a34000039000000b1
:020000040000fa
:101098000c00fa00889fbe008a9fbe008c9fbe008d
:1010a800800678000605be000404be00a07090000b
:1010b8006fc0600002c4b30002c660000c04e00008
:1010c80041003200e44f5000ad003200e84f5000bc
:1010d80036003a004d109000dd1090006d11900020
:1010e800fd1190000d1290009d1290002d1390009c
:1010f800bd139000c4b79f00d5b79f00e6b79f0007
:10110800f7b79f003d2a9000e10f52001600320009
:101118004fb29700dfb297006fb39700ffb3970005
:1011280045ff07000000e000200034000802be0070
:101138000a03be004fb09700dfb097006fb1970069
:10114800ffb197003cff07000080ea004f06de0071
:101158000c4078004f06be004f05be004f04be008d
:101168000080fa00000006004fb29700dfb2970037
:101178006fb39700ffb397002aff07000000e00055
:101188000a003d001cc0b3000802be000a03be00ee
:101198004fb09700dfb097006fb19700ffb197008d
:1011a80020ff07000000e000e9ff34000046eb00e4
:1011b8000c4078004f06be004f05be004f04be002d
:1011c8000080fa00000006000158a3003600320033
:1011d800e24f5000bc003200e24f500020003600c1
:1011e800e44f500094003200e84f5000d8ff3a0016
:1011f8004d109000dd1090006d119000fd119000d1
:101208000d1290009d1290002d139000bd139000b8
:10121800bd2e9000e18f5600170132000400e10056
:101228000588e1000690e1000798e100c8ff340056
:101238001cc0b3000820e10009a8e1000ab0e100e1
:101248000bb8e100d9ff35000c4078004f06be000e
:101258004f05be004f04be000080fa0000000600e3
:10126800e14f5000baff3a008d6890000d60900081
:101278003d299000e10f51001001320080cf50004d
:10128800b3ff34001cc0b300844f5000c7ff3500c3
:101298000c4078004f06be004f05be004f04be004c
:1012a8000080fa0000000600e24f5000760032008d
:1012b800e24f500020003600e44f50004a00320050
:1012c800e84f5000a2ff3a004d109000dd1090004a
:1012d8006d119000fd1190000d1290009d1290006c
:1012e8002d139000bd139000bd2e9000e18f560085
:1012f800d00032000400e1000588e1000690e1001a
:101308000798e10092ff36001cc0b3000820e100f6
:1013180009a8e1000ab0e1000bb8e100a3ff390019
:101328000c4078004f06be004f05be004f04be00bb
:101338000080fa0000000600e14f500084ff3a00e8
:101348008d6890000d6090003d299000e10f5100dc
:101358007d00320080cf50007dff36001cc0b300f6
:10136800844f500091ff39000c4078004f06be00b2
:101378004f05be004f04be000080fa0000000600c2
:101388004d109000dd1090000d1290009d129000fd
:101398003d299000e10f51005b0032000401be00be
:1013a80084bf9f0095bf9f00aafe07000000e000d1
:1013b8000fba97009fba97007cff34000801be005f
:1013c8000400be00a3fe07000080ea004f06de000e
:1013d8000c4078004f06be004f05be004f04be000b
:1013e8000080fa00000006004d119000dd11900009
:1013f8000d1090009d1090003d2a9000e10f5200c2
:101408007f003200800f5100818f590050ff360055
:101418001cc0b300880f5000898f580063ff390043
:101428000c4078004f06be004f05be004f04be00ba
:101438000080fa00000006004d119000dd119000b8
:101448000d1090009d1090003d2a9000e10f520071
:1014580048003200800f5100818f59003cff340052
:101468001cc0b300880f5000898f58004fff35000b
:101478000c4078004f06be004f05be004f04be006a
:101488000080fa0000000600cd1090000d109000ba
:101498003d299000e10f51004e003200808f50002e
:1014a8002bff36001cc0b300840f50003fff3900eb
:1014b8000c4078004f06be004f05be004f04be002a
:1014c8000080fa0000000600cd1090000d1090007a
:1014d8003d299000e10f510033003200808f500009
:1014e8001bff34001cc0b300840f50002fff3500d1
:1014f8000c4078004f06be004f05be004f04be00ea
:101508000080fa00000006000401be0084bf9f00ae
:1015180095bf9f004dfe07000000e0000fba97003e
:101528009fba970021ff3d001cc0b3000801be0010
:101538000400be0045fe07000000e00004ff340080
:101548000046eb001aff370080cf500000ff310043
:101558001cc0b300844f500014ff3e000c407800bc
:101568004f06be004f05be004f04be000080fa00c3
:1015780000000600800f5100818f5900f4fe3d00e5
:101588001cc0b300880f5000898f580007ff3c002b
:101598000c4078004f06be004f05be004f04be0049
:1015a8000080fa0000000600808f5000e8fe3d0031
:1015b8001cc0b300840f5000fcfe3c000c407800b7
:1015c8004f06be004f05be004f04be000080fa0063
:1015d80000000600808f5000ddfe31001cc0b30003
:1015e800840f5000f1fe3e000c4078004f06be000c
:1015f8004f05be004f04be000080fa000000060040
:10160800800f5100818f5900d1fe31001cc0b300fa
:10161800880f5000898f5800e4fe3e000c40780087
:101628004f06be004f05be004f04be000080fa0002
:10163800000006000400e1000588e1000690e100d2
:101648000798e100c2fe31001cc0b3000820e10089
:1016580009a8e1000ab0e1000bb8e100d3fe3e00a2
:101668000c4078004f06be004f05be004f04be0078
:101678000080fa00000006000400e1000588e1008f
:101688000690e1000798e100b1fe3d001cc0b300e0
:101698000820e10009a8e1000ab0e1000bb8e10068
:1016a800c2fe3c000c4078004f06be004f05be004d
:1016b8004f04be000080fa000000060080cf5000f2
:1016c800a3fe3d001cc0b300844f5000b7fe3c0091
:1016d8000c4078004f06be004f05be004f04be0008
:1016e8000080fa000000060010017800828f500088
:1016f8000b0032000200e0000800320064014000e4
:101708000200780092017800818f510004003200b5
:10171800640141000300e000f9ff3a000000050001
:101728000100e000fdff32001000900000000600fc
:10173800889fbe008a9fbe008c1f780080017800b9
:101748008099eb00f2024000050378000002eb00ec
:101758000046eb0084197800845a7800868f51007f
:10176800fcff3a00510898006044b8006055b80082
:1017780008109800191098002a1098003b1098003b
:1017880048109800591098006a1098007b1098002b
:10179800041898002c709800241898006033b8003a
:1017a800361898004718980054189800641898003c
:1017b80074189800042098002cc0980026209800df
:1017c8003720980046209800572098004cc8980069
:1017d80076209800072898006112b800142898000d
:1017e80025289800110020003128980064089800e6
:1017f8007508980042289800618f8000c0089800fa
:101808004f0678004f05be004f04be0000000600da
:101818001000fa00889fbe008a9fbe008c9fbe0001
:101828000004780020189000e60f50000d003e00dc
:10183800e50f5000d8003100e20f50000d013200d2
:10184800e40f500000013200e10f50002600320082
:101858004f06be004f05be004f04be000080fa00d0
:1018680000000600e70f500042013200e80f500068
:10187800f7ff3a0078189000e103200088804000c4
:101888008008e800e8189000810f5000f0ff390048
:101898000000eb00701c9800a00320000800400026
:1018a8001080fb008000eb0048219000d8219000b8
:1018b800000041008180490040249800512498008c
:1018c800e00f5000e08f5800e1ff350020002000b5
:1018d800201c98004f06be004f05be004f04be00f6
:1018e8000080fa000000060078189000e10320004c
:1018f800888040008008e800e8189000810f5000b8
:10190800540039000000eb00701c9800a003200070
:10191800080040001082fb008002eb00381890009d
:10192800c8189000040240008582480048299000a9
:101938008001eb00820f5200838f5a0004003600aa
:101948006011b800321c9800431c98006000b80071
:101958008045eb00650320008882420016002000c5
:10196800070020008b84fb000041eb000905e8001c
:101978000a0545000a054400f2844400890444002d
:101988000282fb001a024200d8099000861a400021
:101998008792480015067800950690003c1c980030
:1019a8004d1c980000804100144878000241e8006e
:1019b800994f11001000360038189000c818900090
:1019c8000282fb001a024200d8099000861a4000e1
:1019d8008792480015067800950690003c1c9800f0
:1019e8004d1c980000804100144878000241e8002e
:1019f800994f1100f0ff3e008b45e80038789000c1
:101a08008b4f50000a00360038189000c818900014
:101a18008b84fb000041eb000905e8000a0545003e
:101a28000a054400f284440089044400d4ff3700c6
:101a380038189000c81890007821900088299000e4
:101a4800820f5000838f58000200390010c0b30085
:101a580040cc980088189000287090006f40600073
:101a6800e24f500039013200e24f5000400036008a
:101a7800e44f50003d013200e84f500008003a00a2
:101a8800110278009102900021039000b1039000a8
:101a9800e4b79f00f5b79f0086bf9f0097bf9f00e0
:101aa8006fb29700ffb297000fbb97009fbb9700dc
:101ab8000800780076fd07000004e0001f003200ef
:101ac800c8ca90000504e0001c00320028209000dd
:101ad800b8209000e00f5000e08f5800400135001a
:101ae80038189000c8189000e00f5000e08f580098
:101af8002e013200f81b90000700e00033013a0085
:101b0800a2032000080141001281fb008001eb00c4
:101b18000200500083805800402498005124980007
:101b280070002000201c98004f06be004f05be0024
:101b38004f04be000080fa00000006006fb0970056
:101b4800ffb097000fb997009fb99700401498000d
:101b58005114980062149800731498004f06be0040
:101b68004f05be004f04be000080fa0000000600ca
:101b7800e14f5000caff3a001182fb008002eb00df
:101b88006033b800e4b79f00f5b79f0086bf9f0099
:101b980097bf9f00c2ff37008818900028709000f8
:101ba8006f406000e24f5000e0003200e24f50000a
:101bb8001b003600e44f5000f4003200e84f50009c
:101bc80008003a0011027800910290002103900069
:101bd800b1039000a4b79f00b5b79f00c6b79f0098
:101be800d7b79f002fb29700bfb297004fb39700a7
:101bf800dfb397000800780025fd07000004e00027
:101c0800b300320040002000201c98004f06be00a0
:101c18004f05be004f04be000080fa000000060019
:101c2800e14f5000efff3a001182fb008002eb0009
:101c38006033b800a4b79f00b5b79f00c6b79f0030
:101c4800d7b79f00e7ff37000004200008004000d6
:101c58001008e800e0032000080040001008e80031
:101c68004f06be004f05be004f04be000080fa00bc
:101c78000000060078189000e103200088804000ea
:101c88008008e800e8189000810f50003100390002
:101c98000000eb00701c98008045eb0063032000f7
:101ca8008881410016002000070020008b84fb007b
:101cb8000040eb000905e8000a0545000a05440054
:101cc800f2844400890444000081fb001a014100a9
:101cd800d8089000381a9000c81a90008619420057
:101ce80087914a0013067800930690003c1c9800e0
:101cf8004d1c980084804000924878000040e8001d
:101d0800994f5000f0ff39008b45e8003878900073
:101d180080cf5500e5ff3900a003200008004000ef
:101d28001081fb008001eb0038189000c818900063
:101d38000201400083814800482890008000eb00a1
:101d4800800f5100818f5900020036000000eb001f
:101d5800201c980000042000080040001008e8003b
:101d68004f06be004f05be004f04be000080fa00bb
:101d78000000060078189000e103200088804000e9
:101d88008008e800e8189000810f5000b0fe390084
:101d98000000eb00701c980038189000c8189000dc
:101da800a2032000080141001282fb008002eb0020
:101db8000402400085824800482990008001eb0019
:101dc800820f5200838f5a00010036006000b8006d
:101dd8008045eb0065032000888242001600200041
:101de800070020008b84fb000041eb000905e80098
:101df8000a0545000a054400f284440089044400a9
:101e08000282fb001a024200d8099000861a40009c
:101e18008792480015067800950690003c1c9800ab
:101e28004d1c980000804100144878000241e800e9
:101e3800994f51001000310038189000c8189000d0
:101e48000282fb001a024200d8099000861a40005c
:101e58008792480015067800950690003c1c98006b
:101e68004d1c980000804100144878000241e800a9
:101e7800994f5100f0ff39008b45e8003818900061
:101e8800c81890003879900082cf5500d5ff3900e6
:101e980048219000d821900000005100818059000d
:101ea80028219000b8219000820f5000838f58009d
:101eb80014003e000000eb00201c98004f06be00f6
:101ec8004f05be004f04be000080fa000000060067
:101ed8002fb09700bfb097004fb19700dfb19700c0
:101ee80040149800511498006214980073149800d4
:101ef8004f06be004f05be004f04be000080fa002a
:101f080000000600182a9000a82a9000000042004d
:101f180081804a00800f5100818f59004cfe3900a2
:101f28000000eb00201c9800e4ff37001100780047
:101f38006102b8006033b800a4b79f00b5b79f002e
:101f4800c6b79f00d7b79f0026ff3700110078005b
:101f58006102b8006033b800e4b79f00f5b79f008e
:101f680086bf9f0097bf9f00cdfe37001102780003
:101f7800910290006033b800e4b79f00f5b79f0066
:101f880086bf9f0097bf9f00c5fe370011027800eb
:101f9800910290006033b800a4b79f00b5b79f00c6
:101fa800c6b79f00d7b79f000eff3700a0032000d9
:101fb800080040001080fb008000eb00182e900005
:101fc800a82e90000000560081805e0040249800f2
:101fd8005124980070002000201c9800d2fe370081
:101fe80040249800512498006033b800361c9800ab
:101ff800471c980080002000201c98004f06be0057
:102008004f05be004f04be000080fa000000060025
:102018004071900082487800307a9000944098008f
:1020280040799000a2409800507a9000b4409800ff
:1020380060719000c240980070729000d44098007f
:1020480000799000e2409800107a9000f4409800df
:102058002059900082489800305a9000944898007f
:10206800500990006111b9004019de00a24898009b
:10207800500990006111b9004819de00b248980073
:1020880040c19000c248980020219000b0219000e3
:10209800481add004811de0002017200d24898009b
:1020a80060c19000e248980070c29000f44898001f
:1020b80000c990008250980040219000d0219000e3
:1020c800481add004811de000201720092509800a3
:1020d80020c99000a250980030ca9000b4509800cf
:1020e80020d19000c250980030d29000d45098006f
:1020f80040d19000e250980050d29000f4509800df
:102108004059900082589800505a9000945898006e
:1021180060599000a258980070589000b0589800e4
:1021280020c8b300c0589800d00105002f03b000a4
:10213800889fbe008a9fbe008c9fbe008e1f7800bd
:102148000004be0002477800e34f51008d013600bd
:10215800914090000140e900e74f500089013e009e
:102168000000eb00201c98008041eb00307c9800b8
:10217800002498006000b800301c9800411c9800aa
:10218800638144001281fb004811dd000982e800e8
:102198001482fb0004014100621c9800721c980024
:1021a8006022b8006033b8004414980055149800b1
:1021b8006614980077149800237c980022c0b30016
:1021c80022c4980043cc98004024980051249800d9
:1021d800194190000204e0003c0232008345780077
:1021e800a303200083014400a3af9f00aed79f0044
:1021f800e65eb9008c467800644046000080fb002b
:10220800008044001040780065454600e14f5000ca
:102218008b0132000004e00061013200e24f5000ff
:10222800a7013200e34f500056013a000a85fb002f
:102238000a804400e30040009180fb00c808dd00ec
:102248000080e8001080fb0080804000608f8000e4
:10225800100078000000e0004a01320022fd07006b
:102268000000e000470132000b87fb008e00e80009
:102278008180400081004400900878000a8544006d
:102288004a4090000e074400205798002faa970054
:1022980014414000227c9800a8c2900000c042006f
:1022a80020c49800c82990000281fb001100090091
:1022b8008281d800018051008000eb00102c98002a
:1022c800212c98006a4646008b45e800194090008a
:1022d8008b4f5000c6ff3e002fd797000c81fb00a4
:1022e800ebc046008180fb006cc0460002814400c0
:1022f800124578002a749800818044009140780043
:10230800e1cf5000290232000104e0004702320008
:10231800e2cf50000c013200e3cf500019013a001f
:102328000080fb0000804400e30040009180fb0037
:10233800c808dd000080e8001080fb0080804000b5
:10234800608f8000100078000000e0000d0132006e
:10235800e5fc07000000e0000a01320010007800e8
:10236800001c9800e6404600a1d79f00ef46650094
:10237800e2cf560069023200e2cf5600c6013600ad
:10238800e4cf560042023200e8cf5600fd003a0082
:102398002fd397000681fb0002814400a2b79f005b
:1023a80092439000e7e79f000780fb008000eb0066
:1023b8006011b800c819dd004812de008301720000
:1023c8004811dd00480ade0002017200c808dd007d
:1023d8004802de00810072004800dd00e0af9f0087
:1023e800f1af9f0082b79f0093b79f00afb29700ed
:1023f800a542900085ef9f000580fb008000eb0060
:102408006011b8008201780001017800800078002e
:102418000000eb006faa9700ffaa97000fb3970080
:102428009fb397000000420081804a0002014b00e0
:1024380083814b00a0af9f00b1af9f00c2af9f0048
:10244800d3af9f00afb097001180fb008000eb0076
:102458006011b8002faa9700bfaa97004fab97004a
:10246800dfab97000002420081824a0002034b0062
:1024780083834b00e4af9f00f5af9f0086b79f00b2
:1024880097b79f00afb29700b5429000a5ef9f00a5
:102498000582fb008002eb006033b8000400be0038
:1024a8000601be00c811dd00c80dde00838175007d
:1024b8004809dd00c805de0002817500c800dd009e
:1024c8000000eb006faa9700ffaa97000fb39700d0
:1024d8009fb397000000420081804a0002014b0030
:1024e80083814b00a0af9f00b1af9f00c2af9f0098
:1024f800d3af9f00afb29700c5429000c5ef9f00d1
:102508000580fb008000eb006011b8002faa97003f
:10251800bfaa97004fab9700dfab97000402be003d
:102528000603400087834800a4af9f00b5af9f0013
:10253800c6af9f00d7af9f00afb29700d5429000bb
:10254800e5ef9f000582fb008002eb006033b800d6
:102558000400be000601be00c809dd00c805de0093
:10256800838175004801dd006000b8002faa97003c
:10257800bfaa97004fab9700dfab9700000042005f
:1025880081804a0002014b0083814b00e0af9f002d
:10259800f1af9f0082b79f0093b79f00afb297003b
:1025a800e542900085f79f000582fb008002eb0062
:1025b8006033b8000400be000601be008001780048
:1025c8000001eb006000b8006faa9700ffaa97000f
:1025d8000fb397009fb397000000420081804a0024
:1025e80002014b0083814b00a0af9f00b1af9f0059
:1025f800c2af9f00d3af9f00afb297007542900063
:102608000482fb008002eb006033b8000400be00c7
:102618000601be00c801dd000001eb006000b80043
:102628002faa9700bfaa97004fab9700dfab970080
:102638000000420081804a0002014b0083814b0068
:10264800001498001114980022149800331498006c
:102658000a04e0008b013500287090000054a000a7
:10266800207498006a4646000c81fb0002814400f1
:102678000200e8001080fb008000eb00480add0043
:10268800c802de00850272004802dd001280fb00ed
:102698008000eb0004024000858248000280e800c8
:1026a8001080fb008000eb00c000dd00000020006f
:1026b8000400400085804800630141001281fb004e
:1026c8008001eb00c811dd0002002000000041007d
:1026d8008180490020249800312498005017070071
:1026e80070249800012c9800644046000080fb008c
:1026f800008044001080fb00302c9800654646009e
:102708008c4f5700f60036000c80fb000080440018
:1027180016c0b300904f1300be00320099429000db
:10272800357c98001980fb00201c98000040eb00c5
:102738004f0778004f06be004f05be004f04be008d
:102748002f03b100000006000080fb000080440059
:10275800e30040009180fb00c808dd000080e8002d
:102768001080fb0080804000608f8000100078009f
:102778000000e00003003200dbfb07000000e0007f
:10278800f7fe3a0010c0b3004f0778004f06be00ae
:102798004f05be004f04be002f03b1000000060025
:1027a8000a85fb000b87fb000e02e80004024200ca
:1027b800040244008a8244000500e8001080fb00ff
:1027c8008000eb004809dd00c801de0083017100cc
:1027d8004801dd001580fb008000eb00000a410085
:1027e8000a8544004a4090000e074400205798008c
:1027f8002faa970014414000227c9800a8c290009c
:1028080000c0420020c49800c82990000281fb0043
:10281800110009008281d800018051008000eb007e
:10282800102c9800212c98006a4646008b45e80039
:10283800194090008b4f50006dfe3e00a6fe3700f9
:102848000a85fb000a804400e30040009180fb00f9
:10285800c808dd000080e8001080fb008080400090
:102868006e8f80001e0078000000e000c5ff320077
:102878009dfb07000000e000c2ff32001002780054
:102888009e01900013017800820f52003800320038
:102898000200e000bbff3200ec80410081017800bb
:1028a80011017800820f520031003200ec804000a4
:1028b8000200e000f9ff3a0010c0b300b2ff370091
:1028c8000a85fb000a804400e30040009180fb0079
:1028d800c808dd000080e8001080fb008080400010
:1028e800608f8000100078000000e000a5ff320033
:1028f8007dfb07000000e000a2ff32000b87fb0011
:102908008e00e80081804000810044008008780043
:102918000a8544004a4090000e074400205798005a
:102928002faa970014414000227c9800a8c290006a
:1029380000c0420020c49800c82990000281fb0012
:10294800110009008281d800018051008000eb004d
:10295800102c9800212c98006a4646008b45e80008
:10296800194090008b4f500021fe3e005afe370060
:102978000200e00083ff32000b87fb000a8144005d
:102988008200e8009180fb00c808dd001281fb008e
:102998008280400053019000020001008e00e80090
:1029a8008180400081004400800878000000e00039
:1029b80074ff32000a8544004a4090000e07440024
:1029c800205798002faa970014414000227c9800b5
:1029d800a8c2900000c0420020c49800c8299000f6
:1029e8000281fb00110009008281d800018051009a
:1029f8008000eb00102c9800212c98006a464600b5
:102a08008b45e800194090008b4f5000f8fd3e00c0
:102a180031fe370088189000287090006f406000e1
:102a2800e24f50001d013200e24f5000d90036003d
:102a3800e44f500009013200e84f500008003a0006
:102a4800110278009102900021039000b1039000d8
:102a580094a79f00a5a79f00b6a79f00c7a79f00a0
:102a68001fa29700afa297003fa39700cfa397009c
:102a78004414980055149800661498007714980028
:102a880099429000357c98001980fb00201c980022
:102a98000040eb0026ff3700e1cf560039ff3a002f
:102aa800afd197000381fb00028144001282fb0032
:102ab8008002eb006033b8000414980015149800e5
:102ac8002614980037149800e1fe370060c0b30060
:102ad80051002000420020004cc0b30003fe370024
:102ae80088189000287090006f406000e24f5000f6
:102af800ca003200e24f50001a003600e44f50007e
:102b0800b6003200e84f500008003a001102780081
:102b18009102900021039000b1039000d4a79f0078
:102b2800e5a79f00f6a79f0087af9f005fa29700c9
:102b3800efa297007fa397008fab970044149800eb
:102b480055149800661498007714980099429000dc
:102b5800357c98001980fb00201c98000040eb0091
:102b6800f3fe3700e14f5000f0ff3a001182fb00fe
:102b78008002eb006033b800d4a79f00e5a79f0050
:102b8800f6a79f0087af9f005fa29700efa297006c
:102b98007fa397008fab97004414980055149800b2
:102ba8006614980077149800e8ff37000085fb004a
:102bb8000a804400e30040009180fb00c808dd0063
:102bc8000080e8001080fb00808040006b8f800050
:102bd8001b0078000000e000eafe3200c2fa07009d
:102be8000000e000e7fe3200100278009b01900030
:102bf80013017800840f5100570032000200e000f2
:102c0800e0fe3200ec80410081017800110178007b
:102c1800820f520050003200ec8040000200e000b9
:102c2800f9ff3a0010c0b300d7fe37000080fb0060
:102c3800008044008000e8001181fb008001eb0067
:102c4800481add00c812de00850272004812dd0055
:102c58008080e8001181fb008001eb00c011dd00dd
:102c68000200200004024100858249001081fb0017
:102c78008001eb000401410085814900021c980095
:102c8800b8fd3700afd297000dc6420076fe370078
:102c9800afd297000582fb00048244000401e800db
:102ca8001281fb008001eb00481bdd00c813de0029
:102cb800870373004813dd000481e8001281fb00dc
:102cc8008001eb00c011dd00020020000601410078
:102cd800878149001483fb008003eb000203430053
:102ce80083834b00630242001481fb008001eb00e8
:102cf800c811dd000200200006014100878149005b
:102d08000202be006033b80004149800151498003d
:102d180026149800371498004dfe37002fd29700dc
:102d28000481fb00028144008201e8001382fb0059
:102d38004822dd001281fb00020242008002eb0003
:102d48006033b800041498001514980026149800ed
:102d5800371498003efe37000200e00089fe32007a
:102d68000a8544008a00e8009180fb00c808dd005d
:102d78001a81fb008280400053019000020001008c
:102d8800001c98000000e0007efe320028759000cc
:102d980074fd3700864f500031ff3a001182fb0066
:102da8008002eb006033b80094a79f00a5a79f009e
:102db800b6a79f00c7a79f001fa29700afa29700c2
:102dc8003fa39700cfa39700441498005514980088
:102dd800661498007714980029ff370011027800cc
:102de800910290006033b800d4a79f00e5a79f0028
:102df800f6a79f0087af9f005fa29700efa29700fa
:102e08007fa397008fab970044149800551498003f
:102e180066149800771498004cff3700110078006a
:102e28006102b8006033b800d4a79f00e5a79f00ef
:102e3800f6a79f0087af9f005fa29700efa29700b9
:102e48007fa397008fab97004414980055149800ff
:102e580066149800771498003cff37001102780038
:102e6800910290006033b80094a79f00a5a79f0027
:102e7800b6a79f00c7a79f001fa29700afa2970001
:102e88003fa39700cfa397004414980055149800c7
:102e98006614980077149800f9fe3700110078003e
:102ea8006102b8006033b80094a79f00a5a79f00ef
:102eb800b6a79f00c7a79f001fa29700afa29700c1
:102ec8003fa39700cfa39700441498005514980087
:102ed8006614980077149800e9fe37000000050092
:020000040000fa
:102ee800889fbe008a1f780000047800a21d070092
:102ef800812d200088804000311190000200500090
:102f0800c0109800080078005e19070068b09200a9
:102f18000008a30002003a0018389100203c9900ec
:102f28000800780090120700080078000b1c0700c2
:102f380008007800631a07008f1d0700812d200004
:102f4800888040003111900002005000d010980095
:102f580048bd9200e30f550054003200c8b49100f8
:102f680018a092000000e0001c043200e58f540015
:102f7800d5003200310120000008a30010003a00fb
:102f8800410120000018a3000d003a002101200093
:102f98000028a3000a003a00510120000038a300cd
:102fa80007003a001100200008007800da1b07002b
:102fb800010120000004e00001003a00a838930055
:102fc800c01f200008004000104890005900200051
:102fd8000004e000b80032000040eb0070f49b00f1
:102fe800651d0700812d2000888040003111900068
:102ff80002005000e010980048b0910049b49900d0
:10300800e48f54004c023200e48f5400ba003600ba
:10301800e68f540016033200e68f54008a02390006
:10302800e78f5400af033200e88f5400ee013a00f6
:10303800e80f50003a033a0038a092000000e00080
:103048006c0332000000e90030a49a000000e000a0
:10305800e5013a00218ca900218ca800c0ff2f00af
:10306800216180008101600011322400d2bc2a0055
:1030780044c22000f2608800f1608800030a7800ea
:10308800256280008501600044c42000f260880049
:10309800f1608800030a7800640cb600f2608800ca
:1030a800f160880020638800cf013700c8b4910020
:1030b800e58f54000b00320098a092000100e00058
:1030c8002c003a001100200008007800921b07002d
:1030d8000004e00027003a00283893000000e000d0
:1030e80024003a0048b891000058a300b603320003
:1030f80048b891000050a10040bc990068f09300c6
:103108000000eb00614060001100200028a9920037
:103118000208a30003003200e8b09200c308de00f2
:10312800e18060000001eb000004e00001003200d3
:103138000101780061416100e28f54003f003200d4
:10314800e28f540029003600e48f54004600320014
:10315800e48f540040003900e58f54002f003a00f6
:1031680078f093000004e000290032008004eb00ae
:103178002700370018a09200310120000008a300a2
:1031880010003a00410120000018a3000d003a0089
:10319800210120000028a3000a003a005101200064
:1031a8000038a30007003a0011002000080078004a
:1031b800591b0700010120000004e00001003a004b
:1031c800a8389300c01f2000080040001048900055
:1031d800590020000004e0000d003a00c01f200044
:1031e80008004000fd1b0700090037000900e00047
:1031f8000c003200e18f540004003a000204e000a1
:103208000300320029002000010037008004eb0091
:103218000040eb0070f49b0071ff37008004eb0066
:10322800fbff370020352000080040001004e000b4
:10323800f7ff320049002000f5ff37000204e000e4
:103248001b003200d8d993000304e000f0ff3200dd
:103258008a047800eeff37000204e000ecff3a0031
:1032680049002000eaff3700481193002810930016
:10327800b810930002005000e0805800822d200012
:1032880008014100426290008041eb0043619800d0
:10329800e00f5000e08f5800460334000404e000bb
:1032a80044033a0020149b0031149b00d8ff3700d8
:1032b80049002000d6ff3700c01f2000080040004a
:1032c800c61b070044ff370078f093005900200020
:1032d8000004e00040ff3200890020003eff370074
:1032e80020352000080040001004e0003aff3200ba
:1032f8006900200038ff3700e18f5400dd003200fc
:103308000900e00029003200e28f54002001320059
:10331800e38f540034013a00e30f50000e003200ee
:10332800288091000038a3000b003a001801900093
:103338006111b900c011dd000200200002349900bb
:10334800133499006011b80002b4990013b49900bd
:10335800a000b3002084990008007800c510070079
:1033680008b19000d0092000800f51000100310001
:103378000001780098b09000d0092000808f50009c
:10338800010031008000780028b09000d3092000a7
:10339800830f50000100310003007800326188007b
:1033a80031628800306388000f0137000000e000b8
:1033b8001d003a0038a092000000e00075003200bd
:1033c8000000e90030a49a000000e00006013a007d
:1033d800218ca900218ca800c0ff2f00216180004a
:1033e8008101600011322400d2bc2a0044c22000ae
:1033f800f2608800f1608800030a78002562800086
:103408008501600044c42000f2608800f1608800f3
:10341800030a7800640cb600f2608800f160880046
:1034280020638800f0003700a01e2000080040003c
:10343800cd1b0700c13220008880400000342000e6
:1034480008004000d6190700c0fe2f002461800044
:10345800840160001301b30011322400d2bc2a0099
:1034680045c22000f2608800f1608800830a780075
:1034780024628000840160001301b30045c4200069
:10348800f2608800f1608800830a7800640cb60056
:103498001001b300f2608800f160880020638800a2
:1034a80020352000080040000048eb0038a09200ba
:1034b8000000e00002003a001000200030a49a004a
:1034c800601f2000080040008044eb000948780095
:1034d80001c1b3006148980079489800802d200008
:1034e80008004000681a070000d02700503c9900e7
:1034f800b01a2000603c990030022000703c99000e
:10350800c0192000080040006022b80054949900b7
:1035180065949900189991006111b900c011dd00f6
:103528000200200072949900039c99008000eb002f
:1035380071189800242098003520980011c0980030
:1035480009c0980029c098008000200000949900c4
:103558001000200010349800aa202000080545001b
:103568000a007800fa19070009759900c02b200095
:1035780008004000221b0700402c200008004000e3
:10358800b61b0700a02c200008004000841b070081
:1035980095003700a01e200008004000960e070086
:1035a8000004e000900032008828930078209300ff
:1035b800808f50002a00310068009000f23f200000
:1035c80000014100e17f2000810f51000a003e0008
:1035d8004500dd0001342000888040001180b900da
:1035e80018219300a8219300000051008180590000
:1035f80010249b0021249b0078009000f23f2000bb
:1036080000014100e17f2000810f51000a003e00c7
:103618004500dd0001342000888040001180b90099
:1036280038229300c82293000000520081805a007b
:1036380030249b0041249b00282093004580de0015
:10364800001c9b00482093004580de00301c9b0036
:1036580000352000080040001008e800620037002c
:10366800003420000800400011c0b3002150980029
:103678005d003700e10f500007003a0068f0930042
:103688000004e00058003a00a02c20000800400088
:10369800251b070054003700f2f32f001561800046
:1036a8008501610010322400d1bc2a0024c2200008
:1036b800f1608800f0608800030a780015628000d5
:1036c8008501610024c42000f1608800f060880052
:1036d800030a7800156380000501610023c62000f5
:1036e800f1608800f060880082097800126180002b
:1036f8000290a00024c22000f1608800f0608800d9
:10370800020a7800126280000290a00025c42000fe
:10371800f1608800f0608800820a780012638000f7
:103728000290a00023c62000f1608800f0608800a5
:103738008209780020cd200030618800306288003e
:103748003063880010ff2f0028829100000062007b
:103758002084990008007800681b070018a89200c8
:103768000010a00010ac9a00a92020008884440012
:1037780009007800761907000040eb008074990072
:10378800c02b2000080040006f1b0700bbff37005c
:10379800e20f500042003a0008007800b50f070019
:1037a80008b19000d0092000800f510001003100bd
:1037b8000001780098b09000d0092000808f500058
:1037c800010031008000780028b09000d309200063
:1037d800830f500001003100030078003261880037
:1037e8003162880030638800631b0700812d200048
:1037f800888040003111900002005000f0109800bd
:10380800080078006a18070008089300c0009000b4
:10381800601a2d00808f5000050032000000eb0078
:1038280060b49a003100200041bc9a0030b49a007c
:1038380038b092000000e000120032004f80de0035
:103848000000a00048b19200d8b192006101410087
:10385800e081490042b49a0053b49a0048aa920001
:10386800d8aa9200840f5100858f5900cf013900e2
:103878000000ea0030b49a006000b80040b49a0032
:1038880051b49a003c1b0700f8b8920001005000a0
:1038980040049b004f0578004f04be00000006005e
:1038a80008007800671707006000b800600c9800ef
:1038b800710c980070149800011c9800003499004d
:1038c80011349900a02020000800400011c0b30066
:1038d80001709900d00920003061880030628800aa
:1038e80030638800106180000090a100113224002c
:1038f800d2bc2a00f2608800f1608800106188005c
:10390800106280000090a100f2608800f1608800d9
:1039180010628800106380000090a100f2608800a7
:10392800f160880010638800288091000020a000c2
:103938002084990098ff3700e40f500007003a00f0
:1039480068f093000004e000a7ff3a00a02c2000d4
:1039580008004000741a0700a3ff37000000eb00be
:10396800702c9900f2f32f0014618000840161002b
:1039780010322400d1bc2a0025c22000f160880042
:10398800f0608800830a7800146280008401610076
:1039980025c42000f1608800f0608800830a780060
:1039a800136380000301610024c62000f1608800d1
:1039b800f0608800020a7800126180000290a0007e
:1039c80025c22000f1608800f0608800820a780033
:1039d800126280000290a00023c42000f1608800d9
:1039e800f060880082097800126380000290a000cd
:1039f80024c62000f1608800f0608800020a780080
:103a080020cd200030618800306288003063880053
:103a180010ff2f00a8829100008062002084990086
:103a280088089300648040001008e800081093009c
:103a38009810930020149b0031149b001000200064
:103a480040149b00beff3700e50f500014003a00f9
:103a5800402c200008004000404090000004e00096
:103a680041003a0038a092000000e00061003a00ee
:103a780028a092000000e0005bff32000000e9008f
:103a880020a49a000000e00057ff3a00402c2000d4
:103a98000800400011c0b3004140980052ff3700b1
:103aa8000040eb0060f49b00f2f32f0011618000ee
:103ab8008101610010322400d1bc2a0024c22000f8
:103ac800f1608800f0608800030a780015628000c1
:103ad8008501610024c42000f1608800f06088003e
:103ae800030a7800156380000501610023c62000e1
:103af800f1608800f0608800820978001261800017
:103b08000290a00024c22000f1608800f0608800c4
:103b1800020a7800126280000290a00025c42000ea
:103b2800f1608800f0608800820a780012638000e3
:103b38000290a00023c62000f1608800f060880091
:103b48008209780020cd200030618800306288002a
:103b58003063880010ff2f00288291000000620067
:103b680020849900baff3700402c2000080040004c
:103b78000042eb0044409800c0fe2f002561800001
:103b8800850160001301b30011322400d2bc2a0061
:103b980045c22000f2608800f1608800830a78003e
:103ba80025628000850160001301b30045c4200030
:103bb800f2608800f1608800830a7800640cb6001f
:103bc8001001b300f2608800f1608800206388006b
:103bd80020352000080040000448780038a09200f2
:103be8000000e00000ff3a001000200030a49a0016
:103bf800fdfe3700a8a092000100e00002003a0094
:103c08001100200021a49a000000e90030a49a00c5
:103c18000000e000f4fe3a00218ca900218ca800e5
:103c2800c0ff2f0022618000820160001132240051
:103c3800d2bc2a0044c22000f2608800f1608800eb
:103c4800030a7800256280008501600044c42000d2
:103c5800f2608800f1608800030a7800640cb600fe
:103c6800f2608800f160880020638800defe37007b
:103c7800f2f32f00156180008501610010322400e5
:103c8800d1bc2a0024c22000f1608800f0608800be
:103c9800030a7800156280008501610024c42000b1
:103ca800f1608800f0608800030a780015638000de
:103cb8000501610023c62000f1608800f0608800db
:103cc80082097800126180000290a00024c22000be
:103cd800f1608800f0608800020a780012628000b3
:103ce8000290a00025c42000f1608800f0608800e0
:103cf800820a7800126380000290a00023c6200088
:103d0800f1608800f06088008209780020cd2000ea
:103d1800306188003062880030638800b2fe370066
:103d2800a01e2000080040008f190700c1322000a3
:103d380088804000003420000800400098170700e1
:103d4800c0fe2f0024618000840160001301b300cd
:103d580011322400d2bc2a0045c22000f26088003b
:103d6800f1608800830a7800246280008401600082
:103d78001301b30045c42000f2608800f160880098
:103d8800830a7800640cb6001001b300f260880062
:103d9800f160880020638800611f2000888040004f
:103da8000040eb008048780002c1b300e248980068
:103db800f04898002135200088804000804878002d
:103dc80038a092000000e00002003a001000200035
:103dd80030a49a006000b800600c9800710c98003c
:103de80070149800011c980000349900113499004f
:103df8007dfe3700a01e2000080040007e0c070052
:103e08000004e00078fe3200802d20000800400009
:103e18008040eb0051609800882893007820930038
:103e2800808f50002a00310068009000f23f200087
:103e380000014100e17f2000810f51000a003e008f
:103e48004500dd0001342000888040001180b90061
:103e580018219300a8219300000051008180590087
:103e680010249b0021249b0078009000f23f200042
:103e780000014100e17f2000810f51000a003e004f
:103e88004500dd0001342000888040001180b90021
:103e980038229300c82293000000520081805a0003
:103ea80030249b0041249b00282093004580de009d
:103eb800001c9b00482093004580de00301c9b00be
:103ec80000352000080040001008e80046fe3700d2
:103ed800003420000800400011c0b30021509800b1
:103ee80041fe3700e70f500015003a00080078003f
:103ef800e00d070008b19000d0092000800f5100a4
:103f0800010031000001780098b09000d00920002d
:103f1800808f5000010031008000780028b09000a8
:103f2800d3092000830f50000100310003007800fe
:103f38003261880031628800306388002afe3700c9
:103f4800e8b092000158a30002003200e20f5000ce
:103f5800e6ff3200d0092000306188003062880016
:103f680030638800106180000090a10011322400a5
:103f7800d2bc2a00f2608800f160880010618800d5
:103f8800106280000090a100f2608800f160880053
:103f980010628800106380000090a100f260880021
:103fa800f160880010638800d0ff370030b49a00b1
:103fb80034fe37006011b80022149b0033149b00b4
:103fc8001900200092fc3700e8f093001000200050
:103fd8000104e0004bfc3a0049fc3700e58f54002f
:103fe800b9fc3200e88f5400bdfc320048b892009a
:103ff800690020000000e000f7fb3200802d20005f
:104008000800400050609000890020000004e00093
:0c401800f1fb3a0079002000effb3700bc
:020000040000fa
:1040240021c0b30041409800b000900012c2b30018
:10403400924098009000900001040100300190002b
:1040440092409000e2cf500024003200e2cf5000b2
:104054000f003600e4cf500029003200e4cf5000b6
:1040640030003900e5cf500016003a00618f80001f
:1040740053002000b30098008040eb0011419800e9
:1040840021c0b30041409800900090000104010059
:104094000104e0002c003200e1cf500009003a0096
:1040a400618f800013002000b30098008040eb0073
:1040b4001141980021c0b300414098009000900045
:1040c4000104010021c2b3001141980021c0b300d2
:1040d400414098009000900001040100618f80002d
:1040e40023002000b30098008040eb0011419800a9
:1040f40021c0b300414098009000900001040100e9
:10410400618f800043002000b30098008040eb00e2
:104114001141980021c0b3004140980090009000e4
:1041240001040100618f800033002000b300980077
:104134008040eb001141980021c0b3004140980039
:104144009000900001040100638f80000002eb00e6
:10415400b40198001141980021c0b3004140980077
:104164009000900001040100b00090000041eb00b9
:1041740092409800618f800031019000b00090005f
:10418400a240980031c0b3004140980090009000d4
:1041940001040100881f780000047800b00090003a
:1041a4000180e8009082fb00c82add000100e800dd
:1041b4001080fb0080824200628f8000120278002f
:1041c4000400e0008c00320094017800838f5200d8
:1041d400130032000300e0000800320064004200d3
:1041e4000002780090017800838f52000c003200a6
:1041f400640040000300e000f9ff3a0000c4b3008b
:1042040022c0b30042449800904098009800900067
:1042140008007800010001004f0478000000060047
:104224000300e000f5ff320014009000a2019000aa
:104234000300e0001a003200a2019000938f5200a4
:104244007e003200a2019000930178000300e00098
:104254000f003200430020002202900003024200bb
:10426400948f12000a0032002202900064834100fd
:10427400030242001400e0000500320086017800c9
:104284002202900003024200948f1200f6ff3a00cb
:1042940022029000030242001400e00030003a00c1
:1042a400920190000300e0004a00320010037800fd
:1042b40092019000930f5300660032009201900027
:1042c400930178000300e0000f003200c3002000d7
:1042d4001202900003024200940f13000a003200fd
:1042e40012029000ec824100030242001400e0003c
:1042f400050032008501780012029000030242009a
:10430400940f1300f6ff3a001202900003024200d9
:104314001400e00040003200120290004841900076
:1043240063415100e380400083014200c3019000d7
:10433400030001000004e0001c003a0021c0b300a7
:1043440041449800b8009000904098009800900074
:1043540008007800010001004f0478000000060006
:10436400220290004841900063415100e3804000e4
:104374008301420093019000030001000004e00067
:10438400a5ff320020c0b3004044980038009000dc
:1043940021c4b300114098009800900008007800f0
:1043a400010001004f0478000000060020c0b300a3
:1043b400404498003800900041c1b3001140980077
:1043c4009800900008007800010001004f04780074
:1043d4000000060020c0b3004044980040c4b3006d
:1043e40090409800980090000800780001000100b7
:1043f4004f0478000000060030c4b30022c0b300ac
:10440400424498009040980098009000080078007a
:104414000100010080ff370020c0b3004044980031
:1044240010c4b300904098009800900008007800f1
:10443400010001004f047800000006008001eb0039
:1044440022029000030242001400e00094ff3200b4
:10445400c3ff37008001eb00abff3700b0009000d2
:10446400d0419000d2c2b30082cf5100a6003600e2
:10447400e2c2b300424098000041eb009240980031
:10448400b000900053c0b300a3409800b000900067
:10449400b2409800628f8000a2099000b0009000a2
:1044a400c3409800a2089000b0019000c808de0044
:1044b400d1419800b0009000d0419000e3409800b2
:1044c400b000900003c1b300f3409800b000900026
:1044d40023c8b30083489800b000900033c5b300ec
:1044e40093489800b000900053c6b300a3489800c6
:1044f400b000900003c7b300b3489800b001900027
:1045040011c3b300c1499800b001900034c3b30093
:10451400d44998003002900023c3b300634a980042
:104524003002900005c3b300754a98003002900031
:1045340003529800b001900044c3b3009451980012
:10454400b0019000a1519800b001900054c3b30091
:10455400b4519800b0019000c1519800b00090008f
:1045640063c3b300d3509800b20890000100e00088
:104574006b003200b2099000b000900093417800c3
:10458400e3509800b2099000b0009000934190006d
:10459400f3509800b2099000b0009000a34190003d
:1045a40083589800b2099000b0009000c341900075
:1045b40093589800b2099000b0009000d341900045
:1045c400a3589800b2099000b0009000f341900005
:1045d400b3589800b2099000b0009000834990004d
:1045e400c3589800b2099000b0009000934990001d
:1045f400d3589800b2099000b0009000a3499000ed
:10460400e3589800b2099000b0009000b3499000bc
:10461400f3589800b2099000b0009000c34990008c
:1046240083609800b2099000b0009000e3499000c4
:1046340093609800b2099000b0009000f349900094
:10464400a3609800b2019000b0009000b36098009d
:10465400c2019000b0009000c3609800c2009000b6
:10466400b0019000c808de00d161980052029000a9
:10467400e2029000b0009000e460980052029000c2
:10468400e2029000b0009000482bdd004822de00da
:1046940004027300c82ade00f460980052029000fd
:1046a400e2029000b00090008568980052029000e9
:1046b400e2029000b0009000482ade00946898005e
:1046c4006111b900b0009000a2689800b000900099
:1046d400c81ade00481bdd004812de000402730025
:1046e400b4689800b0009000401ade000500200075
:1046f400c4689800b00090004819de00d2689800a1
:10470400900090000104010022c0b30042409800d0
:1047140052c1b3009240980090009000010401003f
:1047240021022000d3c2b3003002900001014200f4
:10473400034978008100e900f58f5000faff3a0040
:10474400628f8000b2019000b0009000b3609800c6
:10475400c2019000b0009000c3609800c2009000b5
:10476400b0019000c808de00d161980052029000a8
:10477400e2029000b0009000e460980052029000c1
:10478400e2029000b0009000482bdd004822de00d9
:1047940004027300c82ade00f460980052029000fc
:1047a400e2029000b00090008568980052029000e8
:1047b400e2029000b0009000482ade00946898005d
:1047c4006111b900b0009000a2689800b000900098
:1047d400c81ade00481bdd004812de000402730024
:1047e400b4689800b0009000401ade000500200074
:1047f400c4689800b00090004819de00d2689800a0
:104804009000900001040100881f780000047800e3
:10481400b00090000180e8009081fb00c819dd0021
:104824000100e8001080fb0080814100648f80005b
:10483400940278000500e0004f0032001501780072
:10484400828f5100130032000200e00008003200a1
:10485400648042008002780010017800828f510049
:104864000c003200640040000200e000f9ff3a004e
:1048740000c4b30022c0b3004244980090409800a2
:104884009800900008007800010001004f047800af
:10489400000006000200e000f5ff32001400900062
:1048a4000000e0003c003200150090001003780086
:1048b40014019000920f5300400032001401900044
:1048c400120178000200e0000f003200c200200054
:1048d4009401900082814100930f13000a0032007a
:1048e40094019000ec024100828141001300e00039
:1048f4000500320005017800940190008281410096
:10490400930f1300f6ff3a00940190008281410056
:104914001300e0000f003200940190008180e80051
:1049240002814100320190000200010000c0e80051
:1049340040449800380090008040eb0011409800fb
:104944009800900008007800010001004f047800ee
:104954000000060020c0b3004044980010c4b30017
:104964009040980098009000080078000100010031
:104974004f0478000000060030c4b30022c0b30026
:1049840042449800904098009800900008007800f5
:1049940001000100bdff370020c0b300404498006f
:1049a40040c4b3009040980098009000080078003c
:1049b400010001004f047800000006000001eb0034
:1049c40094019000828141001300e000d2ff3a007c
:1049d400e0ff370022c0b30042409800300190004d
:1049e400114198009000900001040100e119210098
:1049f400431d21002201220082287800838f500069
:104a0400fdff3a00011a2100410098000000060051
:104a1400400090000123220001087800610b22006d
:104a2400110098000102220021009800c10c22000c
:104a34002110980061402200111098000000060027
:020000040000fa
:104a4400889fbe008a1f7800000578004108900006
:104a54000082b9000402420085824a000501780000
:104a640002f0a7000281ea00d1099000039bb9007b
:104a74000603430087834b000702780004f0a70075
:104a84000482ea0004014100122d98004a22900099
:104a94000491b900a40420000a024200140a41004f
:104aa40054924900fa2390004a24900008bab900ad
:104ab4005a219000ea219000040251008582590095
:104ac4005425980065259800c129dd004f23de0098
:104ad40006837100762598008a2b900007bab900e6
:104ae4000402420085824a000501780002f0a70012
:104af4000281ea00820f53001300340042052000b3
:104b04000a014100120478009204900061014400fb
:104b1400e0814c00222d9800332d98004a2a900001
:104b2400da2a9000840f5100858f5900090039005a
:104b34006033b800262d9800372d98004a919000d4
:104b44000200a000050037006044b800282d98003a
:104b5400392d98004a9190000200a10042959800d6
:104b6400a31d20008181410099ff2f0093814400ff
:104b7400e18f5100030036004f0578004f04be005a
:104b84000000060091099300e28f5100d0003a0022
:104b9400c30520008a8141001a007800930f500059
:104ba400cb003d001400200005002000742d980067
:104bb40005359800630620008a8141001600200014
:104bc4000700200033024300a3824b0034359800d1
:104bd400453598005a349000ea349000880f52000a
:104be400898f5a00d90036006022b8003435980005
:104bf40045359800742d9800053598000230a000c2
:104c0400429598001a199000aa199000fa1390007e
:104c1400079ab90004025100858259001ab9b900f3
:104c24000201420083814a00121d9800231d98004e
:104c34001a0378004f99de0002f0a2000303530028
:104c44004240af0002037800061d98005a199000f4
:104c5400ea1990003a1c9000089ab9000401510026
:104c6400858159009a04900008cab90004014100e2
:104c740085814900521d9800631d98000302780045
:104c840009017800cfa1de0003f0a2000401510065
:104c94004240af0003017800421d980006b3b900fa
:104ca4000603430087834b000702780004f0a70043
:104cb4000482ea000291b9000201410083814900a3
:104cc4000303780006f0a7000683ea000602420008
:104cd4007a08900000a2b900020220000a014100f3
:104ce4001209420052914a00aa1290007a0b9000d5
:104cf40006a9b9000a1490009a1490000201540005
:104d040083815c000215980013159800c11cdd0016
:104d14004f12de0004827400241598001a007800f3
:104d24000082b9000402420085824a00050178002d
:104d340002f0a7000281ea009a019000039bb900e7
:104d44000603430087834b000702780004f0a700a2
:104d54000482ea00040141007a0290000491b9003f
:104d640070024500140a410054924900aa0b9000b5
:104d74007a04900008b9b9000a0a90009a0a9000cf
:104d84000201520083815a00020d9800130d98000d
:104d9400411bdd004f12de0004027300240d980055
:104da40041b19100e30f51006a003200c10a2000b2
:104db4008a8040009100e800619598007a91900003
:104dc400828f50006cff39008000eb0061959800e1
:104dd4006e044500aa1290003a13900006a9b90087
:104de400810220008a80400091084100d19049004e
:104df4006a129000ba12900005a1b9004a139000fb
:104e0400da1390000201530083815b00421598007d
:104e140053159800c11cdd004f13de000683740097
:104e2400661598002a089000ba0890000181b9001c
:104e3400f800450091084100d1904900ea0990002a
:104e4400ba0c9000099ab9004a089000da08900058
:104e54000402500085825800440d9800550d9800b6
:104e6400c128dd004f21de0002817000620d980030
:104e74004491de00721d9800860f510004013d002c
:104e8400020420000a0141001202780092029000fc
:104e940061014200e0814a00121c9800231c980022
:104ea400381a9000c81a9000840f5100858f590059
:104eb400fa0039006033b8000625980017259800d9
:104ec400ca9090000110a000419598002aff370075
:104ed4003a329000ca329000e00f5200e08f5a003c
:104ee4001a003200c30520008a8141006a83410010
:104ef4001800200009002000081b420009934a0002
:104f040016027800960290003435980045359800d2
:104f14008381e80033024400a3824c00742d98007e
:104f2400053598001a339000aa339000860f52007a
:104f3400878f5a00050036006022b8003435980087
:104f440045359800742d9800053598000230a1006d
:104f54002bff3700f1b0900001f0a7008100ea00b8
:104f640001f0a7008180ea00e20620000a01410066
:104f7400928f50007f003d001200200003002000ab
:104f8400023d9800133d9800810720008a8040006c
:104f9400180020000900200031014400a1814c00c8
:104fa400423d9800533d98006a389000fa389000ca
:104fb400800f5100818f59008d0036006011b800b8
:104fc400423d9800533d9800023d9800133d9800df
:104fd400ca9090000120a00041959800ea0090003a
:104fe40001f0a7008180ea002a899000828f500096
:104ff40082003d002a0190000292b900040242009e
:1050040085824a000502780004f0a7000482ea00c1
:10501400ba019000039bb9000603430087834b0049
:105024000701780002f0a7000281ea0006082000c8
:105034000a034300020b4200ca03900007bab900f6
:105044000402420085824a000502780004f0a700a9
:105054000482ea005a0090000084b9000804440065
:1050640089844c000901780002f0a7000281ea005b
:105074008601780082294200930178001385980004
:105084002a9190000192b9000402420085824a00ec
:10509400230a20008a814100138142000191b90052
:1050a4000202410083824900030a20008a814100f0
:1050b40013814200528d98001691b90002014100fb
:1050c4008381490003027800638d9800ba899000b7
:1050d400019bb9000603430087834b00478d98006a
:1050e4001a83900006b9b900020141008381490086
:1050f400738d9800848f5100400034001100090022
:105104000320d900010820008a804000b0109800d4
:1051140012002000030020002285980033859800a7
:10512400ec80400014002000050020003101420002
:10513400a1814a0062859800738598000a8b9000cb
:105144009a8b9000860f5100878f59004c003600cf
:105154006011b800628598007385980022859800d4
:1051640033859800ca9090000140a00041959800b2
:105174000eff37004a399000da399000e00f5100f1
:10518400e08f59001a003200e10620008a804000b6
:105194006a8240001600200007002000061a410021
:1051a400079249001404780094049000483d980044
:1051b400593d98008180e80031014300a1814b00f2
:1051c400023d9800133d98002a389000ba389000a8
:1051d400800f5100818f5900050036006011b8001e
:1051e400423d9800533d9800023d9800133d9800bd
:1051f400ca9090000120a10077ff3700f1ff27003b
:10520400319598006a819000fa819000e00f510076
:10521400e08f59001a003200010820008a80400003
:105224006c8240001800200009002000081a410088
:105234000992490014017800940190006285980055
:1052440073859800e480400031014400a1814c0042
:1052540022859800338598004a829000da82900073
:10526400840f5100858f5900050036006011b80085
:10527400628598007385980022859800338598008c
:10528400ca9090000140a10041959800c7fe3700e4
:105294006044b8000825980019259800ca90900029
:0c52a4000110a1004195980033fe370076
:020000040000fa
:1052b00011002000110898008000eb000108980000
:1052c00000000600889fbe008a9fbe008c9fbe0023
:1052d0008e1f780000047800f50540006605400048
:1052e000980c9000e18f540022003a005800900082
:1052f000b0009000010001000004e000d001320085
:1053000008089000e20f5000a5003200e20f5000a4
:105310005e003600e40f500071003200e40f5000d0
:1053200082003900e50f50007c003a00c850900020
:1053300050c5b30080cf500048003200e2cf50008b
:105340004600320058009000100178000200010071
:1053500058009000d0009000010001000000eb0018
:10536000100c980070049800980c9000e18f540085
:10537000deff32005ac5b300f50544000900e00025
:1053800029003a0058009000a000900001000100a0
:105390000004e000240032005800900090009000cb
:1053a0000100010080417800f8009000e28f500079
:1053b000ba003200e28f500092003600e48f5000b5
:1053c000d9003200e48f5000c2003900e58f500050
:1053d000a7003a00c85090008acf500080003200e9
:1053e000e2cf50007e00320081cf510080003a00b1
:1053f0003800900010407800fa4f500070013e00d5
:105400000080fb0000004000c801900000804100c7
:10541000900078000800780001000100980c9000ce
:105420000900e000d7ff3200608f8000c0089000c4
:105430000100e00004003200c0089000a1189000b4
:10544000e48f5000e30032004f0778004f06be00a3
:105450004f05be004f04be000000060081c0ea00f8
:10546000415498005800900010017800020001009b
:1054700058009000d0009000010001000000eb00f7
:10548000100c980070049800b7ff37000000e0008f
:105490001a003200e10f500020003a00c85090007e
:1054a0004841900002c040004054980058009000cd
:1054b00010017800c84090000200010048409000b0
:1054c00051c5b300814f5000a3003200e24f50009d
:1054d000a100320020002000000c980080ff37005f
:1054e00058009000100178008040eb00020001009d
:1054f000e08e8000000c980079ff370050052000f6
:10550000200c9800580090001001780051c5b3009d
:1055100002000100090c980071ff37000000eb0049
:10552000100c9800700498006dff37009b80fb0002
:105530009a8040004850900011404000405498002c
:10554000580090001001780091407800020001009e
:10555000585090008080fb008101e8006401440005
:105560001281fb00828f51008d00350038019000c0
:10557000810041009140780052c5b30082cf5000b5
:1055800006013200e2cf5000040132005100200039
:10559000010c98000040e8005054980050ff37007c
:1055a000c8519000c848900001c041004054980084
:1055b0005800900010017800020001004848900057
:1055c00051c5b300814f50005d003200e24f5000e2
:1055d0005b00320030002000000c980040ff3700d4
:1055e00081c0ea004154980081cf510080ff320011
:1055f00031c1b30008007800f7fc0700980c900058
:1056000087ff37000100e0001d003200e18f5000ed
:1056100017003a000004e00015003200d840900066
:10562000814f5000ee003e0052c5b3008240400062
:10563000415498004044980059549800210020009b
:10564000710498008a4f5000ed003200e24f500084
:10565000eb0032002000200070049800980c9000ad
:105660006fff37000a407800da51e300d9003200ba
:105670000000eb0070049800980c900068ff370061
